{"abi":[{"type":"constructor","inputs":[{"name":"_cUSD","type":"address","internalType":"address"},{"name":"_trophy","type":"address","internalType":"address"},{"name":"_leaderboard","type":"address","internalType":"address"}],"stateMutability":"nonpayable"},{"type":"function","name":"BOARD","inputs":[{"name":"","type":"uint256","internalType":"uint256"}],"outputs":[{"name":"cellType","type":"uint8","internalType":"enum CeloPolyGame.CellType"},{"name":"colorGroup","type":"int8","internalType":"int8"},{"name":"price","type":"uint256","internalType":"uint256"},{"name":"houseCost","type":"uint256","internalType":"uint256"}],"stateMutability":"view"},{"type":"function","name":"BOARD_SIZE","inputs":[],"outputs":[{"name":"","type":"uint8","internalType":"uint8"}],"stateMutability":"view"},{"type":"function","name":"ENTRY_STAKE","inputs":[],"outputs":[{"name":"","type":"uint256","internalType":"uint256"}],"stateMutability":"view"},{"type":"function","name":"GO_SALARY","inputs":[],"outputs":[{"name":"","type":"uint8","internalType":"uint8"}],"stateMutability":"view"},{"type":"function","name":"GO_SALARY_WEI","inputs":[],"outputs":[{"name":"","type":"uint256","internalType":"uint256"}],"stateMutability":"view"},{"type":"function","name":"TURN_TIMEOUT","inputs":[],"outputs":[{"name":"","type":"uint256","internalType":"uint256"}],"stateMutability":"view"},{"type":"function","name":"activeGame","inputs":[{"name":"","type":"address","internalType":"address"}],"outputs":[{"name":"","type":"uint256","internalType":"uint256"}],"stateMutability":"view"},{"type":"function","name":"buildHouse","inputs":[{"name":"gameId","type":"uint256","internalType":"uint256"},{"name":"cell","type":"uint8","internalType":"uint8"}],"outputs":[],"stateMutability":"nonpayable"},{"type":"function","name":"buyProperty","inputs":[{"name":"gameId","type":"uint256","internalType":"uint256"},{"name":"cell","type":"uint8","internalType":"uint8"}],"outputs":[],"stateMutability":"nonpayable"},{"type":"function","name":"cUSD","inputs":[],"outputs":[{"name":"","type":"address","internalType":"contract IERC20"}],"stateMutability":"view"},{"type":"function","name":"claimTimeout","inputs":[{"name":"gameId","type":"uint256","internalType":"uint256"}],"outputs":[],"stateMutability":"nonpayable"},{"type":"function","name":"commitNonce","inputs":[{"name":"gameId","type":"uint256","internalType":"uint256"},{"name":"commitment","type":"bytes32","internalType":"bytes32"}],"outputs":[],"stateMutability":"nonpayable"},{"type":"function","name":"createGame","inputs":[],"outputs":[{"name":"gameId","type":"uint256","internalType":"uint256"}],"stateMutability":"nonpayable"},{"type":"function","name":"games","inputs":[{"name":"","type":"uint256","internalType":"uint256"}],"outputs":[{"name":"playerCount","type":"uint8","internalType":"uint8"},{"name":"currentTurn","type":"uint8","internalType":"uint8"},{"name":"activePlayerCount","type":"uint8","internalType":"uint8"},{"name":"started","type":"bool","internalType":"bool"},{"name":"ended","type":"bool","internalType":"bool"},{"name":"lastActionTimestamp","type":"uint256","internalType":"uint256"},{"name":"totalPot","type":"uint128","internalType":"uint128"}],"stateMutability":"view"},{"type":"function","name":"joinGame","inputs":[{"name":"gameId","type":"uint256","internalType":"uint256"}],"outputs":[],"stateMutability":"nonpayable"},{"type":"function","name":"leaderboardContract","inputs":[],"outputs":[{"name":"","type":"address","internalType":"address"}],"stateMutability":"view"},{"type":"function","name":"nextGameId","inputs":[],"outputs":[{"name":"","type":"uint256","internalType":"uint256"}],"stateMutability":"view"},{"type":"function","name":"owner","inputs":[],"outputs":[{"name":"","type":"address","internalType":"address"}],"stateMutability":"view"},{"type":"function","name":"renounceOwnership","inputs":[],"outputs":[],"stateMutability":"nonpayable"},{"type":"function","name":"rollDice","inputs":[{"name":"gameId","type":"uint256","internalType":"uint256"},{"name":"revealedNonce","type":"uint256","internalType":"uint256"}],"outputs":[],"stateMutability":"nonpayable"},{"type":"function","name":"startGame","inputs":[{"name":"gameId","type":"uint256","internalType":"uint256"}],"outputs":[],"stateMutability":"nonpayable"},{"type":"function","name":"transferOwnership","inputs":[{"name":"newOwner","type":"address","internalType":"address"}],"outputs":[],"stateMutability":"nonpayable"},{"type":"function","name":"trophyContract","inputs":[],"outputs":[{"name":"","type":"address","internalType":"address"}],"stateMutability":"view"},{"type":"event","name":"CardDrawn","inputs":[{"name":"gameId","type":"uint256","indexed":true,"internalType":"uint256"},{"name":"player","type":"address","indexed":true,"internalType":"address"},{"name":"cardType","type":"uint8","indexed":false,"internalType":"uint8"},{"name":"cardIndex","type":"uint8","indexed":false,"internalType":"uint8"},{"name":"cUSDEffect","type":"int128","indexed":false,"internalType":"int128"}],"anonymous":false},{"type":"event","name":"DiceRolled","inputs":[{"name":"gameId","type":"uint256","indexed":true,"internalType":"uint256"},{"name":"player","type":"address","indexed":true,"internalType":"address"},{"name":"die1","type":"uint8","indexed":false,"internalType":"uint8"},{"name":"die2","type":"uint8","indexed":false,"internalType":"uint8"},{"name":"newPosition","type":"uint8","indexed":false,"internalType":"uint8"}],"anonymous":false},{"type":"event","name":"GameCreated","inputs":[{"name":"gameId","type":"uint256","indexed":true,"internalType":"uint256"},{"name":"host","type":"address","indexed":true,"internalType":"address"}],"anonymous":false},{"type":"event","name":"GameEnded","inputs":[{"name":"gameId","type":"uint256","indexed":true,"internalType":"uint256"},{"name":"winner","type":"address","indexed":true,"internalType":"address"},{"name":"prize","type":"uint256","indexed":false,"internalType":"uint256"}],"anonymous":false},{"type":"event","name":"GameStarted","inputs":[{"name":"gameId","type":"uint256","indexed":true,"internalType":"uint256"},{"name":"players","type":"address[4]","indexed":false,"internalType":"address[4]"}],"anonymous":false},{"type":"event","name":"HouseBuilt","inputs":[{"name":"gameId","type":"uint256","indexed":true,"internalType":"uint256"},{"name":"cell","type":"uint8","indexed":false,"internalType":"uint8"},{"name":"newHouseCount","type":"uint8","indexed":false,"internalType":"uint8"}],"anonymous":false},{"type":"event","name":"NonceCommitted","inputs":[{"name":"gameId","type":"uint256","indexed":true,"internalType":"uint256"},{"name":"player","type":"address","indexed":true,"internalType":"address"},{"name":"commitment","type":"bytes32","indexed":false,"internalType":"bytes32"}],"anonymous":false},{"type":"event","name":"OwnershipTransferred","inputs":[{"name":"previousOwner","type":"address","indexed":true,"internalType":"address"},{"name":"newOwner","type":"address","indexed":true,"internalType":"address"}],"anonymous":false},{"type":"event","name":"PlayerBankrupt","inputs":[{"name":"gameId","type":"uint256","indexed":true,"internalType":"uint256"},{"name":"player","type":"address","indexed":true,"internalType":"address"}],"anonymous":false},{"type":"event","name":"PlayerJailed","inputs":[{"name":"gameId","type":"uint256","indexed":true,"internalType":"uint256"},{"name":"player","type":"address","indexed":true,"internalType":"address"}],"anonymous":false},{"type":"event","name":"PlayerJoined","inputs":[{"name":"gameId","type":"uint256","indexed":true,"internalType":"uint256"},{"name":"player","type":"address","indexed":true,"internalType":"address"},{"name":"playerIndex","type":"uint8","indexed":false,"internalType":"uint8"}],"anonymous":false},{"type":"event","name":"PlayerReleased","inputs":[{"name":"gameId","type":"uint256","indexed":true,"internalType":"uint256"},{"name":"player","type":"address","indexed":true,"internalType":"address"}],"anonymous":false},{"type":"event","name":"PlayerTimedOut","inputs":[{"name":"gameId","type":"uint256","indexed":true,"internalType":"uint256"},{"name":"player","type":"address","indexed":true,"internalType":"address"}],"anonymous":false},{"type":"event","name":"PropertyBought","inputs":[{"name":"gameId","type":"uint256","indexed":true,"internalType":"uint256"},{"name":"cell","type":"uint8","indexed":false,"internalType":"uint8"},{"name":"buyer","type":"address","indexed":true,"internalType":"address"},{"name":"price","type":"uint256","indexed":false,"internalType":"uint256"}],"anonymous":false},{"type":"event","name":"RentPaid","inputs":[{"name":"gameId","type":"uint256","indexed":true,"internalType":"uint256"},{"name":"payer","type":"address","indexed":true,"internalType":"address"},{"name":"receiver","type":"address","indexed":true,"internalType":"address"},{"name":"amount","type":"uint256","indexed":false,"internalType":"uint256"},{"name":"cell","type":"uint8","indexed":false,"internalType":"uint8"}],"anonymous":false},{"type":"event","name":"TurnChanged","inputs":[{"name":"gameId","type":"uint256","indexed":true,"internalType":"uint256"},{"name":"newTurnIndex","type":"uint8","indexed":false,"internalType":"uint8"},{"name":"nextPlayer","type":"address","indexed":false,"internalType":"address"}],"anonymous":false},{"type":"error","name":"AddressEmptyCode","inputs":[{"name":"target","type":"address","internalType":"address"}]},{"type":"error","name":"AddressInsufficientBalance","inputs":[{"name":"account","type":"address","internalType":"address"}]},{"type":"error","name":"FailedInnerCall","inputs":[]},{"type":"error","name":"OwnableInvalidOwner","inputs":[{"name":"owner","type":"address","internalType":"address"}]},{"type":"error","name":"OwnableUnauthorizedAccount","inputs":[{"name":"account","type":"address","internalType":"address"}]},{"type":"error","name":"ReentrancyGuardReentrantCall","inputs":[]},{"type":"error","name":"SafeERC20FailedOperation","inputs":[{"name":"token","type":"address","internalType":"address"}]}],"bytecode":{"object":"0x60a0604052600161016c553480156200001757600080fd5b50604051620056bc380380620056bc8339810160408190526200003a91620022c0565b600160005533806200006657604051631e4fbdf760e01b81526000600482015260240160405180910390fd5b6200007181620000bc565b506001600160a01b0383811660805261016d80546001600160a01b03199081168584161790915561016e8054909116918316919091179055620000b36200010e565b50505062002336565b600180546001600160a01b038381166001600160a01b0319831681179093556040519116919082907f8be0079c531659141344cd1fd0a4f28419497f9722a3daafe3b4186f6b6457e090600090a35050565b6040805160a0810190915280600181526020016000800b815260200166d529ae9e860000815260200166b1a2bc2ec5000081526020016040518060c0016040528066071afd498d00008152602001662386f26fc100008152602001666a94d74f430000815260200167013fbe85edc9000081526020016702386f26fc10000081526020016703782dace9d900008152508152506002600160288110620001b857620001b862002320565b6009020160008201518160000160006101000a81548160ff02191690836009811115620001e957620001e96200230a565b02179055506020820151815460ff9091166101000261ff00199091161781556040820151600182015560608201516002820155608082015162000233906003830190600662002249565b50506040805160a08101909152905080600181526020016000800b815260200166d529ae9e860000815260200166b1a2bc2ec5000081526020016040518060c00160405280660e35fa931a0000815260200166470de4df820000815260200166d529ae9e860000815260200167027f7d0bdb9200008152602001670470de4df8200000815260200167063eb89da4ed00008152508152506002600360288110620002e157620002e162002320565b6009020160008201518160000160006101000a81548160ff021916908360098111156200031257620003126200230a565b02179055506020820151815460ff9091166101000261ff0019909116178155604082015160018201556060820151600282015560808201516200035c906003830190600662002249565b50506040805160a0810190915290508060048152602001600860000b81526020016702c68af0bb1400008152602001600081526020016040518060c001604052806658d15e17628000815260200166b1a2bc2ec50000815260200167016345785d8a000081526020016702c68af0bb14000081526020016000815260200160008152508152506002600560288110620003f957620003f962002320565b6009020160008201518160000160006101000a81548160ff021916908360098111156200042a576200042a6200230a565b02179055506020820151815460ff9091166101000261ff00199091161781556040820151600182015560608201516002820155608082015162000474906003830190600662002249565b50506040805160a0810190915290508060018152602001600160000b815260200167016345785d8a0000815260200166b1a2bc2ec5000081526020016040518060c00160405280661550f7dca700008152602001666a94d74f430000815260200167013fbe85edc9000081526020016703bf3b91c95b0000815260200167058d15e17628000081526020016707a1fe1602770000815250815250600260066028811062000525576200052562002320565b6009020160008201518160000160006101000a81548160ff021916908360098111156200055657620005566200230a565b02179055506020820151815460ff9091166101000261ff001990911617815560408201516001820155606082015160028201556080820151620005a0906003830190600662002249565b50506040805160a0810190915290508060018152602001600160000b815260200167016345785d8a0000815260200166b1a2bc2ec5000081526020016040518060c00160405280661550f7dca700008152602001666a94d74f430000815260200167013fbe85edc9000081526020016703bf3b91c95b0000815260200167058d15e17628000081526020016707a1fe1602770000815250815250600260086028811062000651576200065162002320565b6009020160008201518160000160006101000a81548160ff021916908360098111156200068257620006826200230a565b02179055506020820151815460ff9091166101000261ff001990911617815560408201516001820155606082015160028201556080820151620006cc906003830190600662002249565b50506040805160a0810190915290508060018152602001600160000b81526020016701aa535d3d0c0000815260200166b1a2bc2ec5000081526020016040518060c00160405280661c6bf5263400008152602001668e1bc9bf040000815260200167016345785d8a00008152602001670429d069189e0000815260200167063eb89da4ed00008152602001670853a0d2313c000081525081525060026009602881106200077d576200077d62002320565b6009020160008201518160000160006101000a81548160ff02191690836009811115620007ae57620007ae6200230a565b02179055506020820151815460ff9091166101000261ff001990911617815560408201516001820155606082015160028201556080820151620007f8906003830190600662002249565b50506040805160a0810190915290508060018152602001600260000b81526020016701f161421c8e0000815260200167016345785d8a000081526020016040518060c00160405280662386f26fc10000815260200166b1a2bc2ec500008152602001670214e8348c4f0000815260200167063eb89da4ed000081526020016708ac7230489e80008152602001670a688906bd8b00008152508152506002600b60288110620008aa57620008aa62002320565b6009020160008201518160000160006101000a81548160ff02191690836009811115620008db57620008db6200230a565b02179055506020820151815460ff9091166101000261ff00199091161781556040820151600182015560608201516002820155608082015162000925906003830190600662002249565b50506040805160a0810190915290508060078152602001600960000b8152602001670214e8348c4f00008152602001600081526020016040518060c00160405280600081526020016000815260200160008152602001600081526020016000815260200160008152508152506002600c60288110620009a857620009a862002320565b6009020160008201518160000160006101000a81548160ff02191690836009811115620009d957620009d96200230a565b02179055506020820151815460ff9091166101000261ff00199091161781556040820151600182015560608201516002820155608082015162000a23906003830190600662002249565b50506040805160a0810190915290508060018152602001600260000b81526020016701f161421c8e0000815260200167016345785d8a000081526020016040518060c00160405280662386f26fc10000815260200166b1a2bc2ec500008152602001670214e8348c4f0000815260200167063eb89da4ed000081526020016708ac7230489e80008152602001670a688906bd8b00008152508152506002600d6028811062000ad55762000ad562002320565b6009020160008201518160000160006101000a81548160ff0219169083600981111562000b065762000b066200230a565b02179055506020820151815460ff9091166101000261ff00199091161781556040820151600182015560608201516002820155608082015162000b50906003830190600662002249565b50506040805160a0810190915290508060018152602001600260000b81526020016702386f26fc100000815260200167016345785d8a000081526020016040518060c00160405280662aa1efb94e0000815260200166d529ae9e860000815260200167027f7d0bdb92000081526020016706f05b59d3b2000081526020016709b6e64a8ec600008152602001670c7d713b49da00008152508152506002600e6028811062000c025762000c0262002320565b6009020160008201518160000160006101000a81548160ff0219169083600981111562000c335762000c336200230a565b02179055506020820151815460ff9091166101000261ff00199091161781556040820151600182015560608201516002820155608082015162000c7d906003830190600662002249565b50506040805160a0810190915290508060048152602001600860000b81526020016702c68af0bb1400008152602001600081526020016040518060c001604052806658d15e17628000815260200166b1a2bc2ec50000815260200167016345785d8a000081526020016702c68af0bb14000081526020016000815260200160008152508152506002600f6028811062000d1a5762000d1a62002320565b6009020160008201518160000160006101000a81548160ff0219169083600981111562000d4b5762000d4b6200230a565b02179055506020820151815460ff9091166101000261ff00199091161781556040820151600182015560608201516002820155608082015162000d95906003830190600662002249565b50506040805160a0810190915290508060018152602001600360000b815260200167027f7d0bdb920000815260200167016345785d8a000081526020016040518060c001604052806631bced02db0000815260200166f8b0a10e47000081526020016702c68af0bb14000081526020016707a1fe16027700008152602001670a688906bd8b00008152602001670d2f13f7789f0000815250815250600260106028811062000e475762000e4762002320565b6009020160008201518160000160006101000a81548160ff0219169083600981111562000e785762000e786200230a565b02179055506020820151815460ff9091166101000261ff00199091161781556040820151600182015560608201516002820155608082015162000ec2906003830190600662002249565b50506040805160a0810190915290508060018152602001600360000b815260200167027f7d0bdb920000815260200167016345785d8a000081526020016040518060c001604052806631bced02db0000815260200166f8b0a10e47000081526020016702c68af0bb14000081526020016707a1fe16027700008152602001670a688906bd8b00008152602001670d2f13f7789f0000815250815250600260126028811062000f745762000f7462002320565b6009020160008201518160000160006101000a81548160ff0219169083600981111562000fa55762000fa56200230a565b02179055506020820151815460ff9091166101000261ff00199091161781556040820151600182015560608201516002820155608082015162000fef906003830190600662002249565b50506040805160a0810190915290508060018152602001600360000b81526020016702c68af0bb140000815260200167016345785d8a000081526020016040518060c001604052806638d7ea4c680000815260200167011c37937e080000815260200167030d98d59a9600008152602001670853a0d2313c00008152602001670b1a2bc2ec5000008152602001670de0b6b3a76400008152508152506002601360288110620010a257620010a262002320565b6009020160008201518160000160006101000a81548160ff02191690836009811115620010d357620010d36200230a565b02179055506020820151815460ff9091166101000261ff0019909116178155604082015160018201556060820151600282015560808201516200111d906003830190600662002249565b50506040805160a0810190915290508060018152602001600460000b815260200167030d98d59a9600008152602001670214e8348c4f000081526020016040518060c00160405280663ff2e795f50000815260200167013fbe85edc9000081526020016703782dace9d9000081526020016709b6e64a8ec600008152602001670c249fdd327780008152602001670e92596fd62900008152508152506002601560288110620011d057620011d062002320565b6009020160008201518160000160006101000a81548160ff021916908360098111156200120157620012016200230a565b02179055506020820151815460ff9091166101000261ff0019909116178155604082015160018201556060820151600282015560808201516200124b906003830190600662002249565b50506040805160a0810190915290508060018152602001600460000b815260200167030d98d59a9600008152602001670214e8348c4f000081526020016040518060c00160405280663ff2e795f50000815260200167013fbe85edc9000081526020016703782dace9d9000081526020016709b6e64a8ec600008152602001670c249fdd327780008152602001670e92596fd62900008152508152506002601760288110620012fe57620012fe62002320565b6009020160008201518160000160006101000a81548160ff021916908360098111156200132f576200132f6200230a565b02179055506020820151815460ff9091166101000261ff00199091161781556040820151600182015560608201516002820155608082015162001379906003830190600662002249565b50506040805160a0810190915290508060018152602001600460000b8152602001670354a6ba7a1800008152602001670214e8348c4f000081526020016040518060c0016040528066470de4df820000815260200167016345785d8a00008152602001670429d069189e00008152602001670a688906bd8b00008152602001670cd64299613c80008152602001670f43fc2c04ee000081525081525060026018602881106200142c576200142c62002320565b6009020160008201518160000160006101000a81548160ff021916908360098111156200145d576200145d6200230a565b02179055506020820151815460ff9091166101000261ff001990911617815560408201516001820155606082015160028201556080820151620014a7906003830190600662002249565b50506040805160a0810190915290508060048152602001600860000b81526020016702c68af0bb1400008152602001600081526020016040518060c001604052806658d15e17628000815260200166b1a2bc2ec50000815260200167016345785d8a000081526020016702c68af0bb1400008152602001600081526020016000815250815250600260196028811062001544576200154462002320565b6009020160008201518160000160006101000a81548160ff021916908360098111156200157557620015756200230a565b02179055506020820151815460ff9091166101000261ff001990911617815560408201516001820155606082015160028201556080820151620015bf906003830190600662002249565b50506040805160a0810190915290508060018152602001600560000b815260200167039bb49f599a00008152602001670214e8348c4f000081526020016040518060c00160405280664e28e2290f00008152602001670186cc6acd4b00008152602001670494654067e100008152602001670b1a2bc2ec5000008152602001670d87e555900180008152602001670ff59ee833b300008152508152506002601a6028811062001672576200167262002320565b6009020160008201518160000160006101000a81548160ff02191690836009811115620016a357620016a36200230a565b02179055506020820151815460ff9091166101000261ff001990911617815560408201516001820155606082015160028201556080820151620016ed906003830190600662002249565b50506040805160a0810190915290508060018152602001600560000b815260200167039bb49f599a00008152602001670214e8348c4f000081526020016040518060c00160405280664e28e2290f00008152602001670186cc6acd4b00008152602001670494654067e100008152602001670b1a2bc2ec5000008152602001670d87e555900180008152602001670ff59ee833b300008152508152506002601c60288110620017a057620017a062002320565b6009020160008201518160000160006101000a81548160ff02191690836009811115620017d157620017d16200230a565b02179055506020820151815460ff9091166101000261ff0019909116178155604082015160018201556060820151600282015560808201516200181b906003830190600662002249565b50506040805160a0810190915290508060018152602001600560000b81526020016703e2c284391c00008152602001670214e8348c4f000081526020016040518060c00160405280665543df729c000081526020016701aa535d3d0c000081526020016704fefa17b72400008152602001670bcbce7f1b1500008152602001670e398811bec6800081526020016710a741a4627800008152508152506002601d60288110620018ce57620018ce62002320565b6009020160008201518160000160006101000a81548160ff02191690836009811115620018ff57620018ff6200230a565b02179055506020820151815460ff9091166101000261ff00199091161781556040820151600182015560608201516002820155608082015162001949906003830190600662002249565b50506040805160a0810190915290508060018152602001600660000b8152602001670429d069189e000081526020016702c68af0bb14000081526020016040518060c00160405280665c5edcbc29000081526020016701cdda4faccd000081526020016705698eef066700008152602001670c7d713b49da00008152602001670f43fc2c04ee000081526020016711b1b5bea89f80008152508152506002601f60288110620019fc57620019fc62002320565b6009020160008201518160000160006101000a81548160ff0219169083600981111562001a2d5762001a2d6200230a565b02179055506020820151815460ff9091166101000261ff00199091161781556040820151600182015560608201516002820155608082015162001a77906003830190600662002249565b50506040805160a0810190915290508060018152602001600660000b8152602001670429d069189e000081526020016702c68af0bb14000081526020016040518060c00160405280665c5edcbc29000081526020016701cdda4faccd000081526020016705698eef066700008152602001670c7d713b49da00008152602001670f43fc2c04ee000081526020016711b1b5bea89f8000815250815250600260206028811062001b2a5762001b2a62002320565b6009020160008201518160000160006101000a81548160ff0219169083600981111562001b5b5762001b5b6200230a565b02179055506020820151815460ff9091166101000261ff00199091161781556040820151600182015560608201516002820155608082015162001ba5906003830190600662002249565b50506040805160a0810190915290508060018152602001600660000b8152602001670470de4df820000081526020016702c68af0bb14000081526020016040518060c00160405280666379da05b600008152602001670214e8348c4f0000815260200167063eb89da4ed00008152602001670de0b6b3a764000081526020016710a741a462780000815260200167136dcc951d8c0000815250815250600260226028811062001c585762001c5862002320565b6009020160008201518160000160006101000a81548160ff0219169083600981111562001c895762001c896200230a565b02179055506020820151815460ff9091166101000261ff00199091161781556040820151600182015560608201516002820155608082015162001cd3906003830190600662002249565b50506040805160a0810190915290508060048152602001600860000b81526020016702c68af0bb1400008152602001600081526020016040518060c001604052806658d15e17628000815260200166b1a2bc2ec50000815260200167016345785d8a000081526020016702c68af0bb1400008152602001600081526020016000815250815250600260236028811062001d705762001d7062002320565b6009020160008201518160000160006101000a81548160ff0219169083600981111562001da15762001da16200230a565b02179055506020820151815460ff9091166101000261ff00199091161781556040820151600182015560608201516002820155608082015162001deb906003830190600662002249565b50506040805160a0810190915290508060078152602001600960000b8152602001670214e8348c4f00008152602001600081526020016040518060c0016040528060008152602001600081526020016000815260200160008152602001600081526020016000815250815250600260246028811062001e6e5762001e6e62002320565b6009020160008201518160000160006101000a81548160ff0219169083600981111562001e9f5762001e9f6200230a565b02179055506020820151815460ff9091166101000261ff00199091161781556040820151600182015560608201516002820155608082015162001ee9906003830190600662002249565b50506040805160a0810190915290508060018152602001600760000b81526020016704db73254763000081526020016702c68af0bb14000081526020016040518060c00160405280667c585087238000815260200167026db992a3b1800081526020016706f05b59d3b200008152602001670f43fc2c04ee0000815260200167120a871cc002000081526020016714d1120d7b160000815250815250600260256028811062001f9c5762001f9c62002320565b6009020160008201518160000160006101000a81548160ff0219169083600981111562001fcd5762001fcd6200230a565b02179055506020820151815460ff9091166101000261ff00199091161781556040820151600182015560608201516002820155608082015162002017906003830190600662002249565b50506040805160a081019091529050806003815260200160001960000b815260200167016345785d8a00008152602001600081526020016040518060c001604052806000815260200160008152602001600081526020016000815260200160008152602001600081525081525060026026602881106200209b576200209b62002320565b6009020160008201518160000160006101000a81548160ff02191690836009811115620020cc57620020cc6200230a565b02179055506020820151815460ff9091166101000261ff00199091161781556040820151600182015560608201516002820155608082015162002116906003830190600662002249565b50506040805160a0810190915290508060018152602001600760000b815260200167058d15e17628000081526020016702c68af0bb14000081526020016040518060c0016040528066b1a2bc2ec5000081526020016702c68af0bb1400008152602001670853a0d2313c0000815260200167136dcc951d8c000081526020016717979cfe362a00008152602001671bc16d674ec800008152508152506002602760288110620021c957620021c962002320565b6009020160008201518160000160006101000a81548160ff02191690836009811115620021fa57620021fa6200230a565b02179055506020820151815460ff9091166101000261ff00199091161781556040820151600182015560608201516002820155608082015162002244906003830190600662002249565b505050565b82600681019282156200227a579160200282015b828111156200227a5782518255916020019190600101906200225d565b50620022889291506200228c565b5090565b5b808211156200228857600081556001016200228d565b80516001600160a01b0381168114620022bb57600080fd5b919050565b600080600060608486031215620022d657600080fd5b620022e184620022a3565b9250620022f160208501620022a3565b91506200230160408501620022a3565b90509250925092565b634e487b7160e01b600052602160045260246000fd5b634e487b7160e01b600052603260045260246000fd5b608051613355620023676000396000818161025301528181610ac8015281816114900152612c1201526133556000f3fe608060405234801561001057600080fd5b506004361061014d5760003560e01c80638888200b116100c3578063de49aae11161007c578063de49aae114610354578063e5ed1d5914610368578063efaa55a01461037b578063f2fde38b1461038e578063f71d8d46146103a1578063ff0224d3146103b457600080fd5b80638888200b146102da5780638da5cb5b146102fd578063a83d3e8d1461030e578063b135bbb01461032f578063bd154b3314610339578063dc4a3e951461034c57600080fd5b8063370e916111610115578063370e91611461028d5780635e82ff65146102a0578063715018a6146102a85780637255d729146102b057806380326515146102b857806386e773f1146102c757600080fd5b80630379c8bc14610152578063117a5b90146101745780631bf98fdb1461021f5780631c56c451146102395780631fccf6721461024e575b600080fd5b6101616702c68af0bb14000081565b6040519081526020015b60405180910390f35b6101d5610182366004612f53565b61016a602052600090815260409020600c8101546014820154601583015460169093015460ff8084169461010080860483169562010000900483169480841694919004909216916001600160801b031687565b6040805160ff98891681529688166020880152949096169385019390935290151560608401521515608083015260a08201526001600160801b0390911660c082015260e00161016b565b61022760c881565b60405160ff909116815260200161016b565b61024c610247366004612f6c565b6103c8565b005b6102757f000000000000000000000000000000000000000000000000000000000000000081565b6040516001600160a01b03909116815260200161016b565b61024c61029b366004612f6c565b6104f7565b610161607881565b61024c610a2e565b610161610a42565b610161670de0b6b3a764000081565b61024c6102d5366004612f53565b610cac565b6102ed6102e8366004612f53565b610dc1565b60405161016b9493929190612fa4565b6001546001600160a01b0316610275565b61016161031c366004612fe5565b61016b6020526000908152604090205481565b61016161016c5481565b61024c61034736600461300e565b610df6565b610227602881565b61016d54610275906001600160a01b031681565b61024c610376366004612f53565b611159565b61024c610389366004612f53565b611347565b61024c61039c366004612fe5565b6116c4565b61024c6103af36600461300e565b611702565b61016e54610275906001600160a01b031681565b600082815261016a60205260408120906103e28233611a91565b90508160ff8216600481106103f9576103f9613044565b6003020160010160139054906101000a900460ff16156104545760405162461bcd60e51b8152602060048201526011602482015270105b1c9958591e4818dbdb5b5a5d1d1959607a1b60448201526064015b60405180910390fd5b828260ff83166004811061046a5761046a613044565b60030201600201819055506001826000018260ff166004811061048f5761048f613044565b6003020160010160136101000a81548160ff021916908315150217905550336001600160a01b0316847f745c9ddd418bb0e582a9d72eb9d04b17a65f2d28e1382952406fd9ab94f56ae9856040516104e991815260200190565b60405180910390a350505050565b6104ff611b2d565b600082815261016a60205260409020601481015460ff16801561052c57506014810154610100900460ff16155b6105485760405162461bcd60e51b815260040161044b9061305a565b60006105548233611a91565b600c83015490915060ff80831661010090920416146105a55760405162461bcd60e51b815260206004820152600d60248201526c2737ba103cb7bab9103a3ab93760991b604482015260640161044b565b8160ff8216600481106105ba576105ba613044565b6003020160010160129054906101000a900460ff161561060f5760405162461bcd60e51b815260206004820152601060248201526f165bdd48185c994818985b9adc9d5c1d60821b604482015260640161044b565b8160ff82166004811061062457610624613044565b60030201600201548360405160200161063f91815260200190565b60405160208183030381529060405280519060200120146106925760405162461bcd60e51b815260206004820152600d60248201526c496e76616c6964206e6f6e636560981b604482015260640161044b565b600061069f600143613099565b600c84015460408051924060208401528201869052610100900460f81b6001600160f81b03191660608201524260618201526081810186905260a10160408051808303601f19018152828252805160209182012090830181905292500160405160208183030381529060405280519060200120836000018360ff166004811061072a5761072a613044565b6003020160020181905550600060068261074491906130c2565b61074f9060016130d6565b905060006107626006600885901c6130c2565b61076d9060016130d6565b9050600061077b82846130d6565b905060008660ff87166004811061079457610794613044565b60030201905060008160010160119054906101000a900460ff1660ff1611156108cc578260ff168460ff16036108055760018101805460ff60881b1916905560405133908a907f6db906fc527747b7d5851ac853d74d851426fcdeebc6de2225e1d76724e188a390600090a36108cc565b600181018054600160881b900460ff16906011610821836130ef565b91906101000a81548160ff021916908360ff1602179055505060038160010160119054906101000a900460ff1660ff1611156108b757600061086c60046702c68af0bb14000061310e565b90506108798a8883611b57565b60018201805460ff60881b1916905560405133908b907f6db906fc527747b7d5851ac853d74d851426fcdeebc6de2225e1d76724e188a390600090a3505b6108c089611c0f565b50505050505050610a20565b6001810154600160801b900460ff1660286108e784836130d6565b6108f19190613122565b60018301805460ff60801b1916600160801b60ff93841681029190911791829055838316910490911610806109335750602861092d84836130d6565b60ff1610155b15610985576001820180546702c68af0bb14000091906000906109609084906001600160801b0316613144565b92506101000a8154816001600160801b0302191690836001600160801b031602179055505b60018201546040805160ff88811682528781166020830152600160801b909304909216828201525133918c917fd7f9c8ebff44274025f3d58a6f9a34fe8e3712bd189013302113b788392b958b9181900360600190a36109f88a888460010160109054906101000a900460ff1689611d45565b8360ff168560ff1614610a0e57610a0e8a611c0f565b42886015018190555050505050505050505b610a2a6001600055565b5050565b610a36611ff5565b610a406000612022565b565b33600090815261016b602052604081205415610a945760405162461bcd60e51b8152602060048201526011602482015270416c726561647920696e20612067616d6560781b604482015260640161044b565b61016c8054906000610aa58361316b565b90915550600081815261016a60205260409020909150610af86001600160a01b037f0000000000000000000000000000000000000000000000000000000000000000163330670de0b6b3a7640000612074565b6040805160e0810190915233815260208101610b1d6702c68af0bb140000600a613184565b6001600160801b0390811682526000602080840182905260408085018390526060808601849052608080870185905260a0968701859052875189546001600160a01b039091166001600160a01b0319909116178955878401516001808b0180548b870151958c0151948c01519a8c01511515600160981b0260ff60981b199b1515600160901b0260ff60901b1960ff978816600160881b021661ffff60881b1997909816600160801b026001600160881b031990931695909b169490941717939093169390931796909617969096169490941790945560c0909401516002860155600c8501805460ff19169092179091556016840180546fffffffffffffffffffffffffffffffff1916670de0b6b3a76400001790554260158501553380825261016b909352818120859055905184917fc3e0f84839dc888c892a013d10c8f9d6dc05a21a879d0ce468ca558013e9121c91a360405160008152339083907f267de9464a1783407eb0e8ba56bcd59ef059648e576c0703bfd6a3b84355e8319060200160405180910390a35090565b600081815261016a60205260409020601481015460ff168015610cd957506014810154610100900460ff16155b610cf55760405162461bcd60e51b815260040161044b9061305a565b60788160150154610d06919061319b565b4211610d4a5760405162461bcd60e51b8152602060048201526013602482015272151a5b595bdd5d081b9bdd081c995858da1959606a1b604482015260640161044b565b600c810154610100900460ff166000828260048110610d6b57610d6b613044565b60030201546001600160a01b03169050610d8584836120e1565b6040516001600160a01b0382169085907f17532471d545fb6d2959dbb78f4560766f0ffea32d67916debf0cb3aa92ba0cc90600090a350505050565b60028160288110610dd157600080fd5b600902018054600182015460029092015460ff8216935061010090910460000b919084565b610dfe611b2d565b600082815261016a6020526040812090610e188233611a91565b9050610e258160016130d6565b60ff1682600d018460ff1660288110610e4057610e40613044565b600891828204019190066004029054906101000a900463ffffffff1663ffffffff1614610ea45760405162461bcd60e51b8152602060048201526012602482015271596f7520646f6e2774206f776e207468697360701b604482015260640161044b565b6005826012018460ff1660288110610ebe57610ebe613044565b602081049091015460ff601f9092166101000a90041610610f155760405162461bcd60e51b8152602060048201526011602482015270105b1c9958591e481a185cc81a1bdd195b607a1b604482015260640161044b565b610f42828260028660ff1660288110610f3057610f30613044565b6009020154610100900460000b612219565b610f845760405162461bcd60e51b815260206004820152601360248201527204d757374206f776e2066756c6c2067726f757606c1b604482015260640161044b565b600060028460ff1660288110610f9c57610f9c613044565b60090201600201549050806001600160801b0316836000018360ff1660048110610fc857610fc8613044565b60030201600101546001600160801b0316101561101e5760405162461bcd60e51b8152602060048201526014602482015273496e73756666696369656e742062616c616e636560601b604482015260640161044b565b808360ff84166004811061103457611034613044565b6003020160010160008282829054906101000a90046001600160801b031661105c91906131ae565b92506101000a8154816001600160801b0302191690836001600160801b03160217905550826012018460ff166028811061109857611098613044565b6020918282040191900681819054906101000a900460ff16809291906110bd906130ef565b91906101000a81548160ff021916908360ff16021790555050847fab0224ce9c76ab69b7b8e357def752fc44882c445ea9f4fb618528cb1acbb96885856012018760ff166028811061111157611111613044565b602091828204019190069054906101000a900460ff1660405161114492919060ff92831681529116602082015260400190565b60405180910390a2505050610a2a6001600055565b600081815261016a6020526040902080546001600160a01b031633146111b75760405162461bcd60e51b815260206004820152601360248201527213db9b1e481a1bdcdd0818d85b881cdd185c9d606a1b604482015260640161044b565b600c810154600260ff90911610156112115760405162461bcd60e51b815260206004820152601760248201527f4e656564206174206c65617374203220706c6179657273000000000000000000604482015260640161044b565b601481015460ff16156112585760405162461bcd60e51b815260206004820152600f60248201526e105b1c9958591e481cdd185c9d1959608a1b604482015260640161044b565b60148101805460ff19166001179055600c810180546201000060ff82160262ff0000199091161790554260158201556040805160808101825282546001600160a01b03908116825260038401548116602083015260068401548116828401526009840154166060820152905183907fa6a9c9524ed2e29ee11ef271adbd673e9ed00319ffa2da8f2eedec2d75ab4f11906112f39084906131ce565b60405180910390a2815460408051600081526001600160a01b03909216602083015284917f1c5eb9817dbb76f2170b1173d0edb60def577169d9ae0a561425cdcb4903204b910160405180910390a2505050565b33600090815261016b6020526040902054156113995760405162461bcd60e51b8152602060048201526011602482015270416c726561647920696e20612067616d6560781b604482015260640161044b565b600081815261016a60205260409020601481015460ff16156113f45760405162461bcd60e51b815260206004820152601460248201527311d85b5948185b1c9958591e481cdd185c9d195960621b604482015260640161044b565b600c810154600460ff909116106114395760405162461bcd60e51b8152602060048201526009602482015268149bdbdb48199d5b1b60ba1b604482015260640161044b565b600c81015460ff166114835760405162461bcd60e51b8152602060048201526013602482015272149bdbdb48191bd95cc81b9bdd08195e1a5cdd606a1b604482015260640161044b565b6114c06001600160a01b037f0000000000000000000000000000000000000000000000000000000000000000163330670de0b6b3a7640000612074565b600c8101546040805160e0810190915233815260ff90911690602081016114f06702c68af0bb140000600a613184565b6001600160801b0316815260006020820181905260408201819052606082018190526080820181905260a0909101528260ff83166004811061153457611534613044565b82516003919091029190910180546001600160a01b0319166001600160a01b03909216919091178155602082015160018201805460408501516060860151608087015160a08801516001600160801b039096166001600160881b031990941693909317600160801b60ff938416021761ffff60881b1916600160881b9183169190910260ff60901b191617600160901b921515929092029190911760ff60981b1916600160981b9315159390930292909217905560c090920151600290910155600c83018054909116906000611609836130ef565b91906101000a81548160ff021916908360ff16021790555050670de0b6b3a76400008260160160008282829054906101000a90046001600160801b03166116509190613144565b82546001600160801b039182166101009390930a92830291909202199091161790555033600081815261016b6020908152604091829020869055905160ff8416815285917f267de9464a1783407eb0e8ba56bcd59ef059648e576c0703bfd6a3b84355e831910160405180910390a3505050565b6116cc611ff5565b6001600160a01b0381166116f657604051631e4fbdf760e01b81526000600482015260240161044b565b6116ff81612022565b50565b61170a611b2d565b600082815261016a60205260409020601481015460ff16801561173757506014810154610100900460ff16155b6117535760405162461bcd60e51b815260040161044b9061305a565b600061175f8233611a91565b600c83015490915060ff80831661010090920416146117b05760405162461bcd60e51b815260206004820152600d60248201526c2737ba103cb7bab9103a3ab93760991b604482015260640161044b565b8260ff16826000018260ff16600481106117cc576117cc613044565b6003020160010160109054906101000a900460ff1660ff16146118245760405162461bcd60e51b815260206004820152601060248201526f139bdd081bdb881d1a1a5cc818d95b1b60821b604482015260640161044b565b81600d018360ff166028811061183c5761183c613044565b60088104919091015460079091166004026101000a900463ffffffff16156118965760405162461bcd60e51b815260206004820152600d60248201526c105b1c9958591e481bdddb9959609a1b604482015260640161044b565b61189f836122fe565b6118dc5760405162461bcd60e51b815260206004820152600e60248201526d4e6f7420612070726f706572747960901b604482015260640161044b565b600060028460ff16602881106118f4576118f4613044565b60090201600101549050806001600160801b0316836000018360ff166004811061192057611920613044565b60030201600101546001600160801b031610156119765760405162461bcd60e51b8152602060048201526014602482015273496e73756666696369656e742062616c616e636560601b604482015260640161044b565b808360ff84166004811061198c5761198c613044565b6003020160010160008282829054906101000a90046001600160801b03166119b491906131ae565b92506101000a8154816001600160801b0302191690836001600160801b031602179055508160016119e591906130d6565b60ff1683600d018560ff1660288110611a0057611a00613044565b600891828204019190066004026101000a81548163ffffffff021916908363ffffffff160217905550336001600160a01b0316857f3e5303065e535760d0f262dfb1b1dd0f5711c73c37e62d4a4551f5406794520e8684604051611a7c92919060ff9290921682526001600160801b0316602082015260400190565b60405180910390a3505050610a2a6001600055565b6000805b600c84015460ff9081169082161015611ae9576001600160a01b0383168460ff831660048110611ac757611ac7613044565b60030201546001600160a01b031603611ae1579050611b27565b600101611a95565b5060405162461bcd60e51b8152602060048201526012602482015271506c61796572206e6f7420696e2067616d6560701b604482015260640161044b565b92915050565b600260005403611b5057604051633ee5aeb560e01b815260040160405180910390fd5b6002600055565b600083815261016a60205260408120908160ff851660048110611b7c57611b7c613044565b600302019050826001600160801b03168160010160009054906101000a90046001600160801b03166001600160801b03161015611bc457611bbd85856120e1565b5050505050565b600181018054849190600090611be49084906001600160801b03166131ae565b92506101000a8154816001600160801b0302191690836001600160801b031602179055505050505050565b600081815261016a60205260408120600c81015490919060ff80821691611c3e916101009091041660016130d6565b611c489190613122565b905060005b8260ff831660048110611c6257611c62613044565b6003020160010160129054906101000a900460ff168015611c86575060048160ff16105b15611cbc57600c83015460ff16611c9e8360016130d6565b611ca89190613122565b915080611cb4816130ef565b915050611c4d565b600c8301805461ff00191661010060ff85169081029190911790915542601585015584907f1c5eb9817dbb76f2170b1173d0edb60def577169d9ae0a561425cdcb4903204b908490869060048110611d1657611d16613044565b60030201546040805160ff90931683526001600160a01b0390911660208301520160405180910390a250505050565b600084815261016a6020526040812090600260ff851660288110611d6b57611d6b613044565b600902015460ff1690506001816009811115611d8957611d89612f8e565b1480611da657506004816009811115611da457611da4612f8e565b145b80611dc257506007816009811115611dc057611dc0612f8e565b145b15611e5c57600082600d018560ff1660288110611de157611de1613044565b60088104919091015460079091166004026101000a900463ffffffff1690508015801590611e225750611e158660016130d6565b60ff168163ffffffff1614155b15611e56576000611e34600183613208565b90506000611e4489888489612374565b9050611e53898984848b612556565b50505b50611fed565b6008816009811115611e7057611e70612f8e565b03611f3d57600a8260ff871660048110611e8c57611e8c613044565b6003020160010160106101000a81548160ff021916908360ff1602179055506001826000018660ff1660048110611ec557611ec5613044565b6003020160010160116101000a81548160ff021916908360ff160217905550816000018560ff1660048110611efc57611efc613044565b60030201546040516001600160a01b039091169087907f1ef8a324434f419814dbbb29f35c938014c3fbcaf835e017c5efd649e6c563dd90600090a3611fed565b6005816009811115611f5157611f51612f8e565b03611f71576000611f636010856130c2565b9050611e568787838761272e565b6002816009811115611f8557611f85612f8e565b03611fa5576000611f976010856130c2565b9050611e568787838761295c565b6003816009811115611fb957611fb9612f8e565b03611fed57600060028560ff1660288110611fd657611fd6613044565b60090201600101549050611feb878783611b57565b505b505050505050565b6001546001600160a01b03163314610a405760405163118cdaa760e01b815233600482015260240161044b565b600180546001600160a01b038381166001600160a01b0319831681179093556040519116919082907f8be0079c531659141344cd1fd0a4f28419497f9722a3daafe3b4186f6b6457e090600090a35050565b6040516001600160a01b0384811660248301528381166044830152606482018390526120db9186918216906323b872dd906084015b604051602081830303815290604052915060e01b6020820180516001600160e01b038381831617835250505050612aed565b50505050565b600082815261016a6020526040902060018160ff84166004811061210757612107613044565b60030201600101805460ff60901b1916600160901b92151592909202919091179055600c8101805460ff620100009091041690600261214583613225565b91906101000a81548160ff021916908360ff16021790555050600061016b6000836000018560ff166004811061217d5761217d613044565b60030201546001600160a01b031681526020810191909152604001600020558060ff8316600481106121b1576121b1613044565b60030201546040516001600160a01b039091169084907f0a76487617d737834c1daed9e85e18d5a7032bef9405b1f1def2b499789a0dd190600090a3600c81015462010000900460ff166001036122105761220b83612b50565b505050565b61220b83611c0f565b60008080805b602860ff821610156122d9578460000b60028260ff166028811061224557612245613044565b6009020154610100900460000b1480156122635750612263816122fe565b156122d15781612272816130ef565b925061228190508660016130d6565b60ff1687600d018260ff166028811061229c5761229c613044565b600891828204019190066004029054906101000a900463ffffffff1663ffffffff16036122d157826122cd816130ef565b9350505b60010161221f565b508060ff168260ff161480156122f2575060008160ff16115b925050505b9392505050565b60008060028360ff166028811061231757612317613044565b600902015460ff169050600181600981111561233557612335612f8e565b14806123525750600481600981111561235057612350612f8e565b145b806122f75750600781600981111561236c5761236c612f8e565b149392505050565b600084815261016a60205260408120816012820160ff87166028811061239c5761239c613044565b602091828204019190069054906101000a900460ff169050600060028760ff16602881106123cc576123cc613044565b6040805160c0810191829052926009929092029091016003019060069082845b8154815260200190600101908083116123ec57509394506004935061241092505050565b60028860ff166028811061242657612426613044565b6009908102919091015460ff169081111561244357612443612f8e565b0361248757600061245684886008612d55565b905081612464600183613242565b60ff166006811061247757612477613044565b602002015194505050505061254e565b600760028860ff166028811061249f5761249f613044565b6009908102919091015460ff16908111156124bc576124bc612f8e565b0361252e5760006124cf84886009612d55565b905060006124de600b886130c2565b6124e99060026130d6565b90508160ff166002146124fd576004612500565b600a5b60ff168160ff16612511919061325b565b6125229066038d7ea4c6800061325b565b9550505050505061254e565b808260ff166006811061254357612543613044565b602002015193505050505b949350505050565b600085815261016a602052604090206001600160801b0383168160ff87166004811061258457612584613044565b60030201600101546001600160801b031610156125cd578060ff8616600481106125b0576125b0613044565b60030201600101546001600160801b031692506125cd86866120e1565b828160ff8716600481106125e3576125e3613044565b6003020160010160008282829054906101000a90046001600160801b031661260b91906131ae565b92506101000a8154816001600160801b0302191690836001600160801b0316021790555082816000018560ff166004811061264857612648613044565b6003020160010160008282829054906101000a90046001600160801b03166126709190613144565b92506101000a8154816001600160801b0302191690836001600160801b03160217905550806000018460ff16600481106126ac576126ac613044565b60030201546001600160a01b03168160ff8716600481106126cf576126cf613044565b6003020154604080516001600160801b038716815260ff861660208201526001600160a01b039092169189917f172f18f0ff562013895e51a4e5b5a223eb302d8b4e466ca9e533b4bd640dee80910160405180910390a4505050505050565b604080516102008101825266b1a2bc2ec50000815267016345785d89ffff196020820152670214e8348c4f00009181019190915267011c37937e07ffff19606082015267010a741a46278000608082015266d529ae9e85ffff1960a08201526702c68af0bb14000060c0820152670214e8348c4effff1960e0820152668e1bc9bf04000061010082015266b1a2bc2ec4ffff1961012082015267013fbe85edc900006101408201526702c68af0bb13ffff196101608201526701aa535d3d0c0000610180820152668e1bc9bf03ffff196101a082015266c3663566a580006101c0820152666a94d74f4300006101e082015260008160ff85166010811061283757612837613044565b6020020151905061016a60008781526020019081526020016000206000018560ff166004811061286957612869613044565b6003020154604080516000815260ff87166020820152600f84900b918101919091526001600160a01b039091169087907f6d4b5f629b03fc98ea06f51d610426c881c24c8d029471e9e359335f7f743eb7906060015b60405180910390a3600081600f0b131561294957600086815261016a60205260409020819060ff8716600481106128f8576128f8613044565b6003020160010160008282829054906101000a90046001600160801b03166129209190613144565b92506101000a8154816001600160801b0302191690836001600160801b03160217905550611fed565b611fed868661295784613286565b611b57565b604080516102008101825266b1a2bc2ec500008152670214e8348c4effff196020820152666a94d74f4300009181019190915267010a741a462780006060820152668e1bc9bf040000608082015266b1a2bc2ec4ffff1960a08201526702c68af0bb14000060c082015267012dfb0cb5e87fff1960e082015267011c37937e080000610100820152669fdf42f6e4800061012082015266d529ae9e85ffff1961014082015266d529ae9e860000610160820152670186cc6acd4b0000610180820152667c585087237fff196101a082015267015181ff25a980006101c08201526658d15e176280006101e082015260008160ff851660108110612a6157612a61613044565b6020020151905061016a60008781526020019081526020016000206000018560ff1660048110612a9357612a93613044565b6003020154604080516001815260ff87166020820152600f84900b918101919091526001600160a01b039091169087907f6d4b5f629b03fc98ea06f51d610426c881c24c8d029471e9e359335f7f743eb7906060016128bf565b6000612b026001600160a01b03841683612e01565b90508051600014158015612b27575080806020019051810190612b2591906132b5565b155b1561220b57604051635274afe760e01b81526001600160a01b038416600482015260240161044b565b600081815261016a6020526040812060148101805461ff00191661010017905590805b600c83015460ff9081169082161015612bf6578260ff821660048110612b9b57612b9b613044565b6003020160010160129054906101000a900460ff16612bee578260ff821660048110612bc957612bc9613044565b60030201546001600160a01b0316600081815261016b60205260408120559150612bf6565b600101612b73565b5060168201546001600160801b0316612c396001600160a01b037f0000000000000000000000000000000000000000000000000000000000000000168383612e0f565b61016d546040516376fb280b60e01b81526001600160a01b03848116600483015260248201879052909116906376fb280b906044016020604051808303816000875af1158015612c8d573d6000803e3d6000fd5b505050506040513d601f19601f82011682018060405250810190612cb191906132d7565b5061016e54604051634b163dfd60e11b81526001600160a01b038481166004830152602482018490529091169063962c7bfa90604401600060405180830381600087803b158015612d0157600080fd5b505af1158015612d15573d6000803e3d6000fd5b50505050816001600160a01b0316847ff1898de79c348962fab7695532341027e5bceb0ea2a8785790fa7d7efeeee129836040516104e991815260200190565b6000805b602860ff82161015612df9578260000b60028260ff1660288110612d7f57612d7f613044565b6009020154610100900460000b148015612dde5750612d9f8460016130d6565b60ff1685600d018260ff1660288110612dba57612dba613044565b600891828204019190066004029054906101000a900463ffffffff1663ffffffff16145b15612df15781612ded816130ef565b9250505b600101612d59565b509392505050565b60606122f783836000612e40565b6040516001600160a01b0383811660248301526044820183905261220b91859182169063a9059cbb906064016120a9565b606081471015612e655760405163cd78605960e01b815230600482015260240161044b565b600080856001600160a01b03168486604051612e8191906132f0565b60006040518083038185875af1925050503d8060008114612ebe576040519150601f19603f3d011682016040523d82523d6000602084013e612ec3565b606091505b50915091506122f2868383606082612ee357612ede82612f2a565b6122f7565b8151158015612efa57506001600160a01b0384163b155b15612f2357604051639996b31560e01b81526001600160a01b038516600482015260240161044b565b50806122f7565b805115612f3a5780518082602001fd5b604051630a12f52160e11b815260040160405180910390fd5b600060208284031215612f6557600080fd5b5035919050565b60008060408385031215612f7f57600080fd5b50508035926020909101359150565b634e487b7160e01b600052602160045260246000fd5b60808101600a8610612fc657634e487b7160e01b600052602160045260246000fd5b94815260009390930b6020840152604083019190915260609091015290565b600060208284031215612ff757600080fd5b81356001600160a01b03811681146122f757600080fd5b6000806040838503121561302157600080fd5b82359150602083013560ff8116811461303957600080fd5b809150509250929050565b634e487b7160e01b600052603260045260246000fd5b6020808252600f908201526e47616d65206e6f742061637469766560881b604082015260600190565b634e487b7160e01b600052601160045260246000fd5b81810381811115611b2757611b27613083565b634e487b7160e01b600052601260045260246000fd5b6000826130d1576130d16130ac565b500690565b60ff8181168382160190811115611b2757611b27613083565b600060ff821660ff810361310557613105613083565b60010192915050565b60008261311d5761311d6130ac565b500490565b600060ff831680613135576131356130ac565b8060ff84160691505092915050565b6001600160801b0381811683821601908082111561316457613164613083565b5092915050565b60006001820161317d5761317d613083565b5060010190565b8082028115828204841417611b2757611b27613083565b80820180821115611b2757611b27613083565b6001600160801b0382811682821603908082111561316457613164613083565b60808101818360005b60048110156131ff5781516001600160a01b03168352602092830192909101906001016131d7565b50505092915050565b63ffffffff82811682821603908082111561316457613164613083565b600060ff82168061323857613238613083565b6000190192915050565b60ff8281168282160390811115611b2757611b27613083565b6001600160801b0381811683821602808216919082811461327e5761327e613083565b505092915050565b600081600f0b6f7fffffffffffffffffffffffffffffff1981036132ac576132ac613083565b60000392915050565b6000602082840312156132c757600080fd5b815180151581146122f757600080fd5b6000602082840312156132e957600080fd5b5051919050565b6000825160005b8181101561331157602081860181015185830152016132f7565b50600092019182525091905056fea2646970667358221220b33d3986cc0845a7a4dc553bf5e1562bf03fe1fd560bef6428a53580d822fa1e64736f6c63430008180033","linkReferences":{}},"methodIdentifiers":{"BOARD(uint256)":"8888200b","BOARD_SIZE()":"dc4a3e95","ENTRY_STAKE()":"80326515","GO_SALARY()":"1bf98fdb","GO_SALARY_WEI()":"0379c8bc","TURN_TIMEOUT()":"5e82ff65","activeGame(address)":"a83d3e8d","buildHouse(uint256,uint8)":"bd154b33","buyProperty(uint256,uint8)":"f71d8d46","cUSD()":"1fccf672","claimTimeout(uint256)":"86e773f1","commitNonce(uint256,bytes32)":"1c56c451","createGame()":"7255d729","games(uint256)":"117a5b90","joinGame(uint256)":"efaa55a0","leaderboardContract()":"ff0224d3","nextGameId()":"b135bbb0","owner()":"8da5cb5b","renounceOwnership()":"715018a6","rollDice(uint256,uint256)":"370e9161","startGame(uint256)":"e5ed1d59","transferOwnership(address)":"f2fde38b","trophyContract()":"de49aae1"},"id":36}