{"abi":[{"type":"constructor","inputs":[{"name":"_cUSD","type":"address","internalType":"address"},{"name":"_trophy","type":"address","internalType":"address"},{"name":"_leaderboard","type":"address","internalType":"address"}],"stateMutability":"nonpayable"},{"type":"function","name":"BOARD","inputs":[{"name":"","type":"uint256","internalType":"uint256"}],"outputs":[{"name":"cellType","type":"uint8","internalType":"enum CeloPolyGame.CellType"},{"name":"colorGroup","type":"int8","internalType":"int8"},{"name":"price","type":"uint256","internalType":"uint256"},{"name":"houseCost","type":"uint256","internalType":"uint256"}],"stateMutability":"view"},{"type":"function","name":"BOARD_SIZE","inputs":[],"outputs":[{"name":"","type":"uint8","internalType":"uint8"}],"stateMutability":"view"},{"type":"function","name":"ENTRY_STAKE","inputs":[],"outputs":[{"name":"","type":"uint256","internalType":"uint256"}],"stateMutability":"view"},{"type":"function","name":"GO_SALARY","inputs":[],"outputs":[{"name":"","type":"uint8","internalType":"uint8"}],"stateMutability":"view"},{"type":"function","name":"GO_SALARY_WEI","inputs":[],"outputs":[{"name":"","type":"uint256","internalType":"uint256"}],"stateMutability":"view"},{"type":"function","name":"TURN_TIMEOUT","inputs":[],"outputs":[{"name":"","type":"uint256","internalType":"uint256"}],"stateMutability":"view"},{"type":"function","name":"activeGame","inputs":[{"name":"","type":"address","internalType":"address"}],"outputs":[{"name":"","type":"uint256","internalType":"uint256"}],"stateMutability":"view"},{"type":"function","name":"buildHouse","inputs":[{"name":"gameId","type":"uint256","internalType":"uint256"},{"name":"cell","type":"uint8","internalType":"uint8"}],"outputs":[],"stateMutability":"nonpayable"},{"type":"function","name":"buyProperty","inputs":[{"name":"gameId","type":"uint256","internalType":"uint256"},{"name":"cell","type":"uint8","internalType":"uint8"}],"outputs":[],"stateMutability":"nonpayable"},{"type":"function","name":"cUSD","inputs":[],"outputs":[{"name":"","type":"address","internalType":"contract IERC20"}],"stateMutability":"view"},{"type":"function","name":"claimTimeout","inputs":[{"name":"gameId","type":"uint256","internalType":"uint256"}],"outputs":[],"stateMutability":"nonpayable"},{"type":"function","name":"commitNonce","inputs":[{"name":"gameId","type":"uint256","internalType":"uint256"},{"name":"commitment","type":"bytes32","internalType":"bytes32"}],"outputs":[],"stateMutability":"nonpayable"},{"type":"function","name":"createGame","inputs":[],"outputs":[{"name":"gameId","type":"uint256","internalType":"uint256"}],"stateMutability":"nonpayable"},{"type":"function","name":"games","inputs":[{"name":"","type":"uint256","internalType":"uint256"}],"outputs":[{"name":"playerCount","type":"uint8","internalType":"uint8"},{"name":"currentTurn","type":"uint8","internalType":"uint8"},{"name":"activePlayerCount","type":"uint8","internalType":"uint8"},{"name":"started","type":"bool","internalType":"bool"},{"name":"ended","type":"bool","internalType":"bool"},{"name":"lastActionTimestamp","type":"uint256","internalType":"uint256"},{"name":"totalPot","type":"uint128","internalType":"uint128"}],"stateMutability":"view"},{"type":"function","name":"getGameRoom","inputs":[{"name":"gameId","type":"uint256","internalType":"uint256"}],"outputs":[{"name":"players","type":"tuple[4]","internalType":"struct CeloPolyGame.Player[4]","components":[{"name":"addr","type":"address","internalType":"address"},{"name":"balance","type":"uint128","internalType":"uint128"},{"name":"position","type":"uint8","internalType":"uint8"},{"name":"jailTurns","type":"uint8","internalType":"uint8"},{"name":"bankrupt","type":"bool","internalType":"bool"},{"name":"hasCommitted","type":"bool","internalType":"bool"},{"name":"commitment","type":"bytes32","internalType":"bytes32"}]},{"name":"playerCount","type":"uint8","internalType":"uint8"},{"name":"currentTurn","type":"uint8","internalType":"uint8"},{"name":"activePlayerCount","type":"uint8","internalType":"uint8"},{"name":"propertyOwner","type":"uint32[40]","internalType":"uint32[40]"},{"name":"houseCount","type":"uint8[40]","internalType":"uint8[40]"},{"name":"started","type":"bool","internalType":"bool"},{"name":"ended","type":"bool","internalType":"bool"},{"name":"lastActionTimestamp","type":"uint256","internalType":"uint256"},{"name":"totalPot","type":"uint128","internalType":"uint128"}],"stateMutability":"view"},{"type":"function","name":"joinGame","inputs":[{"name":"gameId","type":"uint256","internalType":"uint256"}],"outputs":[],"stateMutability":"nonpayable"},{"type":"function","name":"leaderboardContract","inputs":[],"outputs":[{"name":"","type":"address","internalType":"address"}],"stateMutability":"view"},{"type":"function","name":"nextGameId","inputs":[],"outputs":[{"name":"","type":"uint256","internalType":"uint256"}],"stateMutability":"view"},{"type":"function","name":"owner","inputs":[],"outputs":[{"name":"","type":"address","internalType":"address"}],"stateMutability":"view"},{"type":"function","name":"renounceOwnership","inputs":[],"outputs":[],"stateMutability":"nonpayable"},{"type":"function","name":"rollDice","inputs":[{"name":"gameId","type":"uint256","internalType":"uint256"},{"name":"revealedNonce","type":"uint256","internalType":"uint256"}],"outputs":[],"stateMutability":"nonpayable"},{"type":"function","name":"startGame","inputs":[{"name":"gameId","type":"uint256","internalType":"uint256"}],"outputs":[],"stateMutability":"nonpayable"},{"type":"function","name":"transferOwnership","inputs":[{"name":"newOwner","type":"address","internalType":"address"}],"outputs":[],"stateMutability":"nonpayable"},{"type":"function","name":"trophyContract","inputs":[],"outputs":[{"name":"","type":"address","internalType":"address"}],"stateMutability":"view"},{"type":"event","name":"CardDrawn","inputs":[{"name":"gameId","type":"uint256","indexed":true,"internalType":"uint256"},{"name":"player","type":"address","indexed":true,"internalType":"address"},{"name":"cardType","type":"uint8","indexed":false,"internalType":"uint8"},{"name":"cardIndex","type":"uint8","indexed":false,"internalType":"uint8"},{"name":"cUSDEffect","type":"int128","indexed":false,"internalType":"int128"}],"anonymous":false},{"type":"event","name":"DiceRolled","inputs":[{"name":"gameId","type":"uint256","indexed":true,"internalType":"uint256"},{"name":"player","type":"address","indexed":true,"internalType":"address"},{"name":"die1","type":"uint8","indexed":false,"internalType":"uint8"},{"name":"die2","type":"uint8","indexed":false,"internalType":"uint8"},{"name":"newPosition","type":"uint8","indexed":false,"internalType":"uint8"}],"anonymous":false},{"type":"event","name":"GameCreated","inputs":[{"name":"gameId","type":"uint256","indexed":true,"internalType":"uint256"},{"name":"host","type":"address","indexed":true,"internalType":"address"}],"anonymous":false},{"type":"event","name":"GameEnded","inputs":[{"name":"gameId","type":"uint256","indexed":true,"internalType":"uint256"},{"name":"winner","type":"address","indexed":true,"internalType":"address"},{"name":"prize","type":"uint256","indexed":false,"internalType":"uint256"}],"anonymous":false},{"type":"event","name":"GameStarted","inputs":[{"name":"gameId","type":"uint256","indexed":true,"internalType":"uint256"},{"name":"players","type":"address[4]","indexed":false,"internalType":"address[4]"}],"anonymous":false},{"type":"event","name":"HouseBuilt","inputs":[{"name":"gameId","type":"uint256","indexed":true,"internalType":"uint256"},{"name":"cell","type":"uint8","indexed":false,"internalType":"uint8"},{"name":"newHouseCount","type":"uint8","indexed":false,"internalType":"uint8"}],"anonymous":false},{"type":"event","name":"NonceCommitted","inputs":[{"name":"gameId","type":"uint256","indexed":true,"internalType":"uint256"},{"name":"player","type":"address","indexed":true,"internalType":"address"},{"name":"commitment","type":"bytes32","indexed":false,"internalType":"bytes32"}],"anonymous":false},{"type":"event","name":"OwnershipTransferred","inputs":[{"name":"previousOwner","type":"address","indexed":true,"internalType":"address"},{"name":"newOwner","type":"address","indexed":true,"internalType":"address"}],"anonymous":false},{"type":"event","name":"PlayerBankrupt","inputs":[{"name":"gameId","type":"uint256","indexed":true,"internalType":"uint256"},{"name":"player","type":"address","indexed":true,"internalType":"address"}],"anonymous":false},{"type":"event","name":"PlayerJailed","inputs":[{"name":"gameId","type":"uint256","indexed":true,"internalType":"uint256"},{"name":"player","type":"address","indexed":true,"internalType":"address"}],"anonymous":false},{"type":"event","name":"PlayerJoined","inputs":[{"name":"gameId","type":"uint256","indexed":true,"internalType":"uint256"},{"name":"player","type":"address","indexed":true,"internalType":"address"},{"name":"playerIndex","type":"uint8","indexed":false,"internalType":"uint8"}],"anonymous":false},{"type":"event","name":"PlayerReleased","inputs":[{"name":"gameId","type":"uint256","indexed":true,"internalType":"uint256"},{"name":"player","type":"address","indexed":true,"internalType":"address"}],"anonymous":false},{"type":"event","name":"PlayerTimedOut","inputs":[{"name":"gameId","type":"uint256","indexed":true,"internalType":"uint256"},{"name":"player","type":"address","indexed":true,"internalType":"address"}],"anonymous":false},{"type":"event","name":"PropertyBought","inputs":[{"name":"gameId","type":"uint256","indexed":true,"internalType":"uint256"},{"name":"cell","type":"uint8","indexed":false,"internalType":"uint8"},{"name":"buyer","type":"address","indexed":true,"internalType":"address"},{"name":"price","type":"uint256","indexed":false,"internalType":"uint256"}],"anonymous":false},{"type":"event","name":"RentPaid","inputs":[{"name":"gameId","type":"uint256","indexed":true,"internalType":"uint256"},{"name":"payer","type":"address","indexed":true,"internalType":"address"},{"name":"receiver","type":"address","indexed":true,"internalType":"address"},{"name":"amount","type":"uint256","indexed":false,"internalType":"uint256"},{"name":"cell","type":"uint8","indexed":false,"internalType":"uint8"}],"anonymous":false},{"type":"event","name":"TurnChanged","inputs":[{"name":"gameId","type":"uint256","indexed":true,"internalType":"uint256"},{"name":"newTurnIndex","type":"uint8","indexed":false,"internalType":"uint8"},{"name":"nextPlayer","type":"address","indexed":false,"internalType":"address"}],"anonymous":false},{"type":"error","name":"AddressEmptyCode","inputs":[{"name":"target","type":"address","internalType":"address"}]},{"type":"error","name":"AddressInsufficientBalance","inputs":[{"name":"account","type":"address","internalType":"address"}]},{"type":"error","name":"FailedInnerCall","inputs":[]},{"type":"error","name":"OwnableInvalidOwner","inputs":[{"name":"owner","type":"address","internalType":"address"}]},{"type":"error","name":"OwnableUnauthorizedAccount","inputs":[{"name":"account","type":"address","internalType":"address"}]},{"type":"error","name":"ReentrancyGuardReentrantCall","inputs":[]},{"type":"error","name":"SafeERC20FailedOperation","inputs":[{"name":"token","type":"address","internalType":"address"}]}],"bytecode":{"object":"0x60a0604052600161016c553480156200001757600080fd5b5060405162005abb38038062005abb8339810160408190526200003a91620022c0565b600160005533806200006657604051631e4fbdf760e01b81526000600482015260240160405180910390fd5b6200007181620000bc565b506001600160a01b0383811660805261016d80546001600160a01b03199081168584161790915561016e8054909116918316919091179055620000b36200010e565b50505062002336565b600180546001600160a01b038381166001600160a01b0319831681179093556040519116919082907f8be0079c531659141344cd1fd0a4f28419497f9722a3daafe3b4186f6b6457e090600090a35050565b6040805160a0810190915280600181526020016000800b815260200166d529ae9e860000815260200166b1a2bc2ec5000081526020016040518060c0016040528066071afd498d00008152602001662386f26fc100008152602001666a94d74f430000815260200167013fbe85edc9000081526020016702386f26fc10000081526020016703782dace9d900008152508152506002600160288110620001b857620001b862002320565b6009020160008201518160000160006101000a81548160ff02191690836009811115620001e957620001e96200230a565b02179055506020820151815460ff9091166101000261ff00199091161781556040820151600182015560608201516002820155608082015162000233906003830190600662002249565b50506040805160a08101909152905080600181526020016000800b815260200166d529ae9e860000815260200166b1a2bc2ec5000081526020016040518060c00160405280660e35fa931a0000815260200166470de4df820000815260200166d529ae9e860000815260200167027f7d0bdb9200008152602001670470de4df8200000815260200167063eb89da4ed00008152508152506002600360288110620002e157620002e162002320565b6009020160008201518160000160006101000a81548160ff021916908360098111156200031257620003126200230a565b02179055506020820151815460ff9091166101000261ff0019909116178155604082015160018201556060820151600282015560808201516200035c906003830190600662002249565b50506040805160a0810190915290508060048152602001600860000b81526020016702c68af0bb1400008152602001600081526020016040518060c001604052806658d15e17628000815260200166b1a2bc2ec50000815260200167016345785d8a000081526020016702c68af0bb14000081526020016000815260200160008152508152506002600560288110620003f957620003f962002320565b6009020160008201518160000160006101000a81548160ff021916908360098111156200042a576200042a6200230a565b02179055506020820151815460ff9091166101000261ff00199091161781556040820151600182015560608201516002820155608082015162000474906003830190600662002249565b50506040805160a0810190915290508060018152602001600160000b815260200167016345785d8a0000815260200166b1a2bc2ec5000081526020016040518060c00160405280661550f7dca700008152602001666a94d74f430000815260200167013fbe85edc9000081526020016703bf3b91c95b0000815260200167058d15e17628000081526020016707a1fe1602770000815250815250600260066028811062000525576200052562002320565b6009020160008201518160000160006101000a81548160ff021916908360098111156200055657620005566200230a565b02179055506020820151815460ff9091166101000261ff001990911617815560408201516001820155606082015160028201556080820151620005a0906003830190600662002249565b50506040805160a0810190915290508060018152602001600160000b815260200167016345785d8a0000815260200166b1a2bc2ec5000081526020016040518060c00160405280661550f7dca700008152602001666a94d74f430000815260200167013fbe85edc9000081526020016703bf3b91c95b0000815260200167058d15e17628000081526020016707a1fe1602770000815250815250600260086028811062000651576200065162002320565b6009020160008201518160000160006101000a81548160ff021916908360098111156200068257620006826200230a565b02179055506020820151815460ff9091166101000261ff001990911617815560408201516001820155606082015160028201556080820151620006cc906003830190600662002249565b50506040805160a0810190915290508060018152602001600160000b81526020016701aa535d3d0c0000815260200166b1a2bc2ec5000081526020016040518060c00160405280661c6bf5263400008152602001668e1bc9bf040000815260200167016345785d8a00008152602001670429d069189e0000815260200167063eb89da4ed00008152602001670853a0d2313c000081525081525060026009602881106200077d576200077d62002320565b6009020160008201518160000160006101000a81548160ff02191690836009811115620007ae57620007ae6200230a565b02179055506020820151815460ff9091166101000261ff001990911617815560408201516001820155606082015160028201556080820151620007f8906003830190600662002249565b50506040805160a0810190915290508060018152602001600260000b81526020016701f161421c8e0000815260200167016345785d8a000081526020016040518060c00160405280662386f26fc10000815260200166b1a2bc2ec500008152602001670214e8348c4f0000815260200167063eb89da4ed000081526020016708ac7230489e80008152602001670a688906bd8b00008152508152506002600b60288110620008aa57620008aa62002320565b6009020160008201518160000160006101000a81548160ff02191690836009811115620008db57620008db6200230a565b02179055506020820151815460ff9091166101000261ff00199091161781556040820151600182015560608201516002820155608082015162000925906003830190600662002249565b50506040805160a0810190915290508060078152602001600960000b8152602001670214e8348c4f00008152602001600081526020016040518060c00160405280600081526020016000815260200160008152602001600081526020016000815260200160008152508152506002600c60288110620009a857620009a862002320565b6009020160008201518160000160006101000a81548160ff02191690836009811115620009d957620009d96200230a565b02179055506020820151815460ff9091166101000261ff00199091161781556040820151600182015560608201516002820155608082015162000a23906003830190600662002249565b50506040805160a0810190915290508060018152602001600260000b81526020016701f161421c8e0000815260200167016345785d8a000081526020016040518060c00160405280662386f26fc10000815260200166b1a2bc2ec500008152602001670214e8348c4f0000815260200167063eb89da4ed000081526020016708ac7230489e80008152602001670a688906bd8b00008152508152506002600d6028811062000ad55762000ad562002320565b6009020160008201518160000160006101000a81548160ff0219169083600981111562000b065762000b066200230a565b02179055506020820151815460ff9091166101000261ff00199091161781556040820151600182015560608201516002820155608082015162000b50906003830190600662002249565b50506040805160a0810190915290508060018152602001600260000b81526020016702386f26fc100000815260200167016345785d8a000081526020016040518060c00160405280662aa1efb94e0000815260200166d529ae9e860000815260200167027f7d0bdb92000081526020016706f05b59d3b2000081526020016709b6e64a8ec600008152602001670c7d713b49da00008152508152506002600e6028811062000c025762000c0262002320565b6009020160008201518160000160006101000a81548160ff0219169083600981111562000c335762000c336200230a565b02179055506020820151815460ff9091166101000261ff00199091161781556040820151600182015560608201516002820155608082015162000c7d906003830190600662002249565b50506040805160a0810190915290508060048152602001600860000b81526020016702c68af0bb1400008152602001600081526020016040518060c001604052806658d15e17628000815260200166b1a2bc2ec50000815260200167016345785d8a000081526020016702c68af0bb14000081526020016000815260200160008152508152506002600f6028811062000d1a5762000d1a62002320565b6009020160008201518160000160006101000a81548160ff0219169083600981111562000d4b5762000d4b6200230a565b02179055506020820151815460ff9091166101000261ff00199091161781556040820151600182015560608201516002820155608082015162000d95906003830190600662002249565b50506040805160a0810190915290508060018152602001600360000b815260200167027f7d0bdb920000815260200167016345785d8a000081526020016040518060c001604052806631bced02db0000815260200166f8b0a10e47000081526020016702c68af0bb14000081526020016707a1fe16027700008152602001670a688906bd8b00008152602001670d2f13f7789f0000815250815250600260106028811062000e475762000e4762002320565b6009020160008201518160000160006101000a81548160ff0219169083600981111562000e785762000e786200230a565b02179055506020820151815460ff9091166101000261ff00199091161781556040820151600182015560608201516002820155608082015162000ec2906003830190600662002249565b50506040805160a0810190915290508060018152602001600360000b815260200167027f7d0bdb920000815260200167016345785d8a000081526020016040518060c001604052806631bced02db0000815260200166f8b0a10e47000081526020016702c68af0bb14000081526020016707a1fe16027700008152602001670a688906bd8b00008152602001670d2f13f7789f0000815250815250600260126028811062000f745762000f7462002320565b6009020160008201518160000160006101000a81548160ff0219169083600981111562000fa55762000fa56200230a565b02179055506020820151815460ff9091166101000261ff00199091161781556040820151600182015560608201516002820155608082015162000fef906003830190600662002249565b50506040805160a0810190915290508060018152602001600360000b81526020016702c68af0bb140000815260200167016345785d8a000081526020016040518060c001604052806638d7ea4c680000815260200167011c37937e080000815260200167030d98d59a9600008152602001670853a0d2313c00008152602001670b1a2bc2ec5000008152602001670de0b6b3a76400008152508152506002601360288110620010a257620010a262002320565b6009020160008201518160000160006101000a81548160ff02191690836009811115620010d357620010d36200230a565b02179055506020820151815460ff9091166101000261ff0019909116178155604082015160018201556060820151600282015560808201516200111d906003830190600662002249565b50506040805160a0810190915290508060018152602001600460000b815260200167030d98d59a9600008152602001670214e8348c4f000081526020016040518060c00160405280663ff2e795f50000815260200167013fbe85edc9000081526020016703782dace9d9000081526020016709b6e64a8ec600008152602001670c249fdd327780008152602001670e92596fd62900008152508152506002601560288110620011d057620011d062002320565b6009020160008201518160000160006101000a81548160ff021916908360098111156200120157620012016200230a565b02179055506020820151815460ff9091166101000261ff0019909116178155604082015160018201556060820151600282015560808201516200124b906003830190600662002249565b50506040805160a0810190915290508060018152602001600460000b815260200167030d98d59a9600008152602001670214e8348c4f000081526020016040518060c00160405280663ff2e795f50000815260200167013fbe85edc9000081526020016703782dace9d9000081526020016709b6e64a8ec600008152602001670c249fdd327780008152602001670e92596fd62900008152508152506002601760288110620012fe57620012fe62002320565b6009020160008201518160000160006101000a81548160ff021916908360098111156200132f576200132f6200230a565b02179055506020820151815460ff9091166101000261ff00199091161781556040820151600182015560608201516002820155608082015162001379906003830190600662002249565b50506040805160a0810190915290508060018152602001600460000b8152602001670354a6ba7a1800008152602001670214e8348c4f000081526020016040518060c0016040528066470de4df820000815260200167016345785d8a00008152602001670429d069189e00008152602001670a688906bd8b00008152602001670cd64299613c80008152602001670f43fc2c04ee000081525081525060026018602881106200142c576200142c62002320565b6009020160008201518160000160006101000a81548160ff021916908360098111156200145d576200145d6200230a565b02179055506020820151815460ff9091166101000261ff001990911617815560408201516001820155606082015160028201556080820151620014a7906003830190600662002249565b50506040805160a0810190915290508060048152602001600860000b81526020016702c68af0bb1400008152602001600081526020016040518060c001604052806658d15e17628000815260200166b1a2bc2ec50000815260200167016345785d8a000081526020016702c68af0bb1400008152602001600081526020016000815250815250600260196028811062001544576200154462002320565b6009020160008201518160000160006101000a81548160ff021916908360098111156200157557620015756200230a565b02179055506020820151815460ff9091166101000261ff001990911617815560408201516001820155606082015160028201556080820151620015bf906003830190600662002249565b50506040805160a0810190915290508060018152602001600560000b815260200167039bb49f599a00008152602001670214e8348c4f000081526020016040518060c00160405280664e28e2290f00008152602001670186cc6acd4b00008152602001670494654067e100008152602001670b1a2bc2ec5000008152602001670d87e555900180008152602001670ff59ee833b300008152508152506002601a6028811062001672576200167262002320565b6009020160008201518160000160006101000a81548160ff02191690836009811115620016a357620016a36200230a565b02179055506020820151815460ff9091166101000261ff001990911617815560408201516001820155606082015160028201556080820151620016ed906003830190600662002249565b50506040805160a0810190915290508060018152602001600560000b815260200167039bb49f599a00008152602001670214e8348c4f000081526020016040518060c00160405280664e28e2290f00008152602001670186cc6acd4b00008152602001670494654067e100008152602001670b1a2bc2ec5000008152602001670d87e555900180008152602001670ff59ee833b300008152508152506002601c60288110620017a057620017a062002320565b6009020160008201518160000160006101000a81548160ff02191690836009811115620017d157620017d16200230a565b02179055506020820151815460ff9091166101000261ff0019909116178155604082015160018201556060820151600282015560808201516200181b906003830190600662002249565b50506040805160a0810190915290508060018152602001600560000b81526020016703e2c284391c00008152602001670214e8348c4f000081526020016040518060c00160405280665543df729c000081526020016701aa535d3d0c000081526020016704fefa17b72400008152602001670bcbce7f1b1500008152602001670e398811bec6800081526020016710a741a4627800008152508152506002601d60288110620018ce57620018ce62002320565b6009020160008201518160000160006101000a81548160ff02191690836009811115620018ff57620018ff6200230a565b02179055506020820151815460ff9091166101000261ff00199091161781556040820151600182015560608201516002820155608082015162001949906003830190600662002249565b50506040805160a0810190915290508060018152602001600660000b8152602001670429d069189e000081526020016702c68af0bb14000081526020016040518060c00160405280665c5edcbc29000081526020016701cdda4faccd000081526020016705698eef066700008152602001670c7d713b49da00008152602001670f43fc2c04ee000081526020016711b1b5bea89f80008152508152506002601f60288110620019fc57620019fc62002320565b6009020160008201518160000160006101000a81548160ff0219169083600981111562001a2d5762001a2d6200230a565b02179055506020820151815460ff9091166101000261ff00199091161781556040820151600182015560608201516002820155608082015162001a77906003830190600662002249565b50506040805160a0810190915290508060018152602001600660000b8152602001670429d069189e000081526020016702c68af0bb14000081526020016040518060c00160405280665c5edcbc29000081526020016701cdda4faccd000081526020016705698eef066700008152602001670c7d713b49da00008152602001670f43fc2c04ee000081526020016711b1b5bea89f8000815250815250600260206028811062001b2a5762001b2a62002320565b6009020160008201518160000160006101000a81548160ff0219169083600981111562001b5b5762001b5b6200230a565b02179055506020820151815460ff9091166101000261ff00199091161781556040820151600182015560608201516002820155608082015162001ba5906003830190600662002249565b50506040805160a0810190915290508060018152602001600660000b8152602001670470de4df820000081526020016702c68af0bb14000081526020016040518060c00160405280666379da05b600008152602001670214e8348c4f0000815260200167063eb89da4ed00008152602001670de0b6b3a764000081526020016710a741a462780000815260200167136dcc951d8c0000815250815250600260226028811062001c585762001c5862002320565b6009020160008201518160000160006101000a81548160ff0219169083600981111562001c895762001c896200230a565b02179055506020820151815460ff9091166101000261ff00199091161781556040820151600182015560608201516002820155608082015162001cd3906003830190600662002249565b50506040805160a0810190915290508060048152602001600860000b81526020016702c68af0bb1400008152602001600081526020016040518060c001604052806658d15e17628000815260200166b1a2bc2ec50000815260200167016345785d8a000081526020016702c68af0bb1400008152602001600081526020016000815250815250600260236028811062001d705762001d7062002320565b6009020160008201518160000160006101000a81548160ff0219169083600981111562001da15762001da16200230a565b02179055506020820151815460ff9091166101000261ff00199091161781556040820151600182015560608201516002820155608082015162001deb906003830190600662002249565b50506040805160a0810190915290508060078152602001600960000b8152602001670214e8348c4f00008152602001600081526020016040518060c0016040528060008152602001600081526020016000815260200160008152602001600081526020016000815250815250600260246028811062001e6e5762001e6e62002320565b6009020160008201518160000160006101000a81548160ff0219169083600981111562001e9f5762001e9f6200230a565b02179055506020820151815460ff9091166101000261ff00199091161781556040820151600182015560608201516002820155608082015162001ee9906003830190600662002249565b50506040805160a0810190915290508060018152602001600760000b81526020016704db73254763000081526020016702c68af0bb14000081526020016040518060c00160405280667c585087238000815260200167026db992a3b1800081526020016706f05b59d3b200008152602001670f43fc2c04ee0000815260200167120a871cc002000081526020016714d1120d7b160000815250815250600260256028811062001f9c5762001f9c62002320565b6009020160008201518160000160006101000a81548160ff0219169083600981111562001fcd5762001fcd6200230a565b02179055506020820151815460ff9091166101000261ff00199091161781556040820151600182015560608201516002820155608082015162002017906003830190600662002249565b50506040805160a081019091529050806003815260200160001960000b815260200167016345785d8a00008152602001600081526020016040518060c001604052806000815260200160008152602001600081526020016000815260200160008152602001600081525081525060026026602881106200209b576200209b62002320565b6009020160008201518160000160006101000a81548160ff02191690836009811115620020cc57620020cc6200230a565b02179055506020820151815460ff9091166101000261ff00199091161781556040820151600182015560608201516002820155608082015162002116906003830190600662002249565b50506040805160a0810190915290508060018152602001600760000b815260200167058d15e17628000081526020016702c68af0bb14000081526020016040518060c0016040528066b1a2bc2ec5000081526020016702c68af0bb1400008152602001670853a0d2313c0000815260200167136dcc951d8c000081526020016717979cfe362a00008152602001671bc16d674ec800008152508152506002602760288110620021c957620021c962002320565b6009020160008201518160000160006101000a81548160ff02191690836009811115620021fa57620021fa6200230a565b02179055506020820151815460ff9091166101000261ff00199091161781556040820151600182015560608201516002820155608082015162002244906003830190600662002249565b505050565b82600681019282156200227a579160200282015b828111156200227a5782518255916020019190600101906200225d565b50620022889291506200228c565b5090565b5b808211156200228857600081556001016200228d565b80516001600160a01b0381168114620022bb57600080fd5b919050565b600080600060608486031215620022d657600080fd5b620022e184620022a3565b9250620022f160208501620022a3565b91506200230160408501620022a3565b90509250925092565b634e487b7160e01b600052602160045260246000fd5b634e487b7160e01b600052603260045260246000fd5b608051613754620023676000396000818161025e01528181610afc015281816116c00152612e4201526137546000f3fe608060405234801561001057600080fd5b50600436106101585760003560e01c80638da5cb5b116100c3578063de49aae11161007c578063de49aae114610388578063e5ed1d591461039c578063efaa55a0146103af578063f2fde38b146103c2578063f71d8d46146103d5578063ff0224d3146103e857600080fd5b80638da5cb5b14610308578063a83d3e8d14610319578063b135bbb01461033a578063bcdafed114610344578063bd154b331461036d578063dc4a3e951461038057600080fd5b80635e82ff65116101155780635e82ff65146102ab578063715018a6146102b35780637255d729146102bb57806380326515146102c357806386e773f1146102d25780638888200b146102e557600080fd5b80630379c8bc1461015d578063117a5b901461017f5780631bf98fdb1461022a5780631c56c451146102445780631fccf67214610259578063370e916114610298575b600080fd5b61016c6702c68af0bb14000081565b6040519081526020015b60405180910390f35b6101e061018d3660046131fd565b61016a602052600090815260409020600c8101546014820154601583015460169093015460ff8084169461010080860483169562010000900483169480841694919004909216916001600160801b031687565b6040805160ff98891681529688166020880152949096169385019390935290151560608401521515608083015260a08201526001600160801b0390911660c082015260e001610176565b61023260c881565b60405160ff9091168152602001610176565b610257610252366004613216565b6103fc565b005b6102807f000000000000000000000000000000000000000000000000000000000000000081565b6040516001600160a01b039091168152602001610176565b6102576102a6366004613216565b61052b565b61016c607881565b610257610a62565b61016c610a76565b61016c670de0b6b3a764000081565b6102576102e03660046131fd565b610ce0565b6102f86102f33660046131fd565b610df5565b604051610176949392919061324e565b6001546001600160a01b0316610280565b61016c61032736600461328f565b61016b6020526000908152604090205481565b61016c61016c5481565b6103576103523660046131fd565b610e2a565b6040516101769a99989796959493929190613307565b61025761037b36600461340d565b611026565b610232602881565b61016d54610280906001600160a01b031681565b6102576103aa3660046131fd565b611389565b6102576103bd3660046131fd565b611577565b6102576103d036600461328f565b6118f4565b6102576103e336600461340d565b611932565b61016e54610280906001600160a01b031681565b600082815261016a60205260408120906104168233611cc1565b90508160ff82166004811061042d5761042d613443565b6003020160010160139054906101000a900460ff16156104885760405162461bcd60e51b8152602060048201526011602482015270105b1c9958591e4818dbdb5b5a5d1d1959607a1b60448201526064015b60405180910390fd5b828260ff83166004811061049e5761049e613443565b60030201600201819055506001826000018260ff16600481106104c3576104c3613443565b6003020160010160136101000a81548160ff021916908315150217905550336001600160a01b0316847f745c9ddd418bb0e582a9d72eb9d04b17a65f2d28e1382952406fd9ab94f56ae98560405161051d91815260200190565b60405180910390a350505050565b610533611d5d565b600082815261016a60205260409020601481015460ff16801561056057506014810154610100900460ff16155b61057c5760405162461bcd60e51b815260040161047f90613459565b60006105888233611cc1565b600c83015490915060ff80831661010090920416146105d95760405162461bcd60e51b815260206004820152600d60248201526c2737ba103cb7bab9103a3ab93760991b604482015260640161047f565b8160ff8216600481106105ee576105ee613443565b6003020160010160129054906101000a900460ff16156106435760405162461bcd60e51b815260206004820152601060248201526f165bdd48185c994818985b9adc9d5c1d60821b604482015260640161047f565b8160ff82166004811061065857610658613443565b60030201600201548360405160200161067391815260200190565b60405160208183030381529060405280519060200120146106c65760405162461bcd60e51b815260206004820152600d60248201526c496e76616c6964206e6f6e636560981b604482015260640161047f565b60006106d3600143613498565b600c84015460408051924060208401528201869052610100900460f81b6001600160f81b03191660608201524260618201526081810186905260a10160408051808303601f19018152828252805160209182012090830181905292500160405160208183030381529060405280519060200120836000018360ff166004811061075e5761075e613443565b6003020160020181905550600060068261077891906134c1565b6107839060016134d5565b905060006107966006600885901c6134c1565b6107a19060016134d5565b905060006107af82846134d5565b905060008660ff8716600481106107c8576107c8613443565b60030201905060008160010160119054906101000a900460ff1660ff161115610900578260ff168460ff16036108395760018101805460ff60881b1916905560405133908a907f6db906fc527747b7d5851ac853d74d851426fcdeebc6de2225e1d76724e188a390600090a3610900565b600181018054600160881b900460ff16906011610855836134ee565b91906101000a81548160ff021916908360ff1602179055505060038160010160119054906101000a900460ff1660ff1611156108eb5760006108a060046702c68af0bb14000061350d565b90506108ad8a8883611d87565b60018201805460ff60881b1916905560405133908b907f6db906fc527747b7d5851ac853d74d851426fcdeebc6de2225e1d76724e188a390600090a3505b6108f489611e3f565b50505050505050610a54565b6001810154600160801b900460ff16602861091b84836134d5565b6109259190613521565b60018301805460ff60801b1916600160801b60ff93841681029190911791829055838316910490911610806109675750602861096184836134d5565b60ff1610155b156109b9576001820180546702c68af0bb14000091906000906109949084906001600160801b0316613543565b92506101000a8154816001600160801b0302191690836001600160801b031602179055505b60018201546040805160ff88811682528781166020830152600160801b909304909216828201525133918c917fd7f9c8ebff44274025f3d58a6f9a34fe8e3712bd189013302113b788392b958b9181900360600190a3610a2c8a888460010160109054906101000a900460ff1689611f75565b8360ff168560ff1614610a4257610a428a611e3f565b42886015018190555050505050505050505b610a5e6001600055565b5050565b610a6a612225565b610a746000612252565b565b33600090815261016b602052604081205415610ac85760405162461bcd60e51b8152602060048201526011602482015270416c726561647920696e20612067616d6560781b604482015260640161047f565b61016c8054906000610ad98361356a565b90915550600081815261016a60205260409020909150610b2c6001600160a01b037f0000000000000000000000000000000000000000000000000000000000000000163330670de0b6b3a76400006122a4565b6040805160e0810190915233815260208101610b516702c68af0bb140000600a613583565b6001600160801b0390811682526000602080840182905260408085018390526060808601849052608080870185905260a0968701859052875189546001600160a01b039091166001600160a01b0319909116178955878401516001808b0180548b870151958c0151948c01519a8c01511515600160981b0260ff60981b199b1515600160901b0260ff60901b1960ff978816600160881b021661ffff60881b1997909816600160801b026001600160881b031990931695909b169490941717939093169390931796909617969096169490941790945560c0909401516002860155600c8501805460ff19169092179091556016840180546fffffffffffffffffffffffffffffffff1916670de0b6b3a76400001790554260158501553380825261016b909352818120859055905184917fc3e0f84839dc888c892a013d10c8f9d6dc05a21a879d0ce468ca558013e9121c91a360405160008152339083907f267de9464a1783407eb0e8ba56bcd59ef059648e576c0703bfd6a3b84355e8319060200160405180910390a35090565b600081815261016a60205260409020601481015460ff168015610d0d57506014810154610100900460ff16155b610d295760405162461bcd60e51b815260040161047f90613459565b60788160150154610d3a919061359a565b4211610d7e5760405162461bcd60e51b8152602060048201526013602482015272151a5b595bdd5d081b9bdd081c995858da1959606a1b604482015260640161047f565b600c810154610100900460ff166000828260048110610d9f57610d9f613443565b60030201546001600160a01b03169050610db98483612311565b6040516001600160a01b0382169085907f17532471d545fb6d2959dbb78f4560766f0ffea32d67916debf0cb3aa92ba0cc90600090a350505050565b60028160288110610e0557600080fd5b600902018054600182015460029092015460ff8216935061010090910460000b919084565b610e32613183565b6000806000610e3f6131de565b610e476131de565b600087815261016a6020526040808220600c8101546014820154601583015460168401548551608081019096528695869586959094859460ff8084169561010080860483169662010000909604831695600d8a019560128b01958186169593909104909216926001600160801b0316908a60048e835b82821015610f55576040805160e08101825260038402860180546001600160a01b031682526001808201546001600160801b03811660208086019190915260ff600160801b8304811696860196909652600160881b820486166060860152600160901b8204861615156080860152600160981b909104909416151560a084015260029091015460c08301529083529092019101610ebd565b505060408051610500810191829052939d5089925060289150826000855b82829054906101000a900463ffffffff1663ffffffff1681526020019060040190602082600301049283019260010382029150808411610f7357505060408051610500810191829052959b508a94506028935091508390506000855b825461010083900a900460ff16815260206001928301818104948501949093039092029101808411610fcf579050505050505094509a509a509a509a509a509a509a509a509a509a50509193959799509193959799565b61102e611d5d565b600082815261016a60205260408120906110488233611cc1565b90506110558160016134d5565b60ff1682600d018460ff166028811061107057611070613443565b600891828204019190066004029054906101000a900463ffffffff1663ffffffff16146110d45760405162461bcd60e51b8152602060048201526012602482015271596f7520646f6e2774206f776e207468697360701b604482015260640161047f565b6005826012018460ff16602881106110ee576110ee613443565b602081049091015460ff601f9092166101000a900416106111455760405162461bcd60e51b8152602060048201526011602482015270105b1c9958591e481a185cc81a1bdd195b607a1b604482015260640161047f565b611172828260028660ff166028811061116057611160613443565b6009020154610100900460000b612449565b6111b45760405162461bcd60e51b815260206004820152601360248201527204d757374206f776e2066756c6c2067726f757606c1b604482015260640161047f565b600060028460ff16602881106111cc576111cc613443565b60090201600201549050806001600160801b0316836000018360ff16600481106111f8576111f8613443565b60030201600101546001600160801b0316101561124e5760405162461bcd60e51b8152602060048201526014602482015273496e73756666696369656e742062616c616e636560601b604482015260640161047f565b808360ff84166004811061126457611264613443565b6003020160010160008282829054906101000a90046001600160801b031661128c91906135ad565b92506101000a8154816001600160801b0302191690836001600160801b03160217905550826012018460ff16602881106112c8576112c8613443565b6020918282040191900681819054906101000a900460ff16809291906112ed906134ee565b91906101000a81548160ff021916908360ff16021790555050847fab0224ce9c76ab69b7b8e357def752fc44882c445ea9f4fb618528cb1acbb96885856012018760ff166028811061134157611341613443565b602091828204019190069054906101000a900460ff1660405161137492919060ff92831681529116602082015260400190565b60405180910390a2505050610a5e6001600055565b600081815261016a6020526040902080546001600160a01b031633146113e75760405162461bcd60e51b815260206004820152601360248201527213db9b1e481a1bdcdd0818d85b881cdd185c9d606a1b604482015260640161047f565b600c810154600260ff90911610156114415760405162461bcd60e51b815260206004820152601760248201527f4e656564206174206c65617374203220706c6179657273000000000000000000604482015260640161047f565b601481015460ff16156114885760405162461bcd60e51b815260206004820152600f60248201526e105b1c9958591e481cdd185c9d1959608a1b604482015260640161047f565b60148101805460ff19166001179055600c810180546201000060ff82160262ff0000199091161790554260158201556040805160808101825282546001600160a01b03908116825260038401548116602083015260068401548116828401526009840154166060820152905183907fa6a9c9524ed2e29ee11ef271adbd673e9ed00319ffa2da8f2eedec2d75ab4f11906115239084906135cd565b60405180910390a2815460408051600081526001600160a01b03909216602083015284917f1c5eb9817dbb76f2170b1173d0edb60def577169d9ae0a561425cdcb4903204b910160405180910390a2505050565b33600090815261016b6020526040902054156115c95760405162461bcd60e51b8152602060048201526011602482015270416c726561647920696e20612067616d6560781b604482015260640161047f565b600081815261016a60205260409020601481015460ff16156116245760405162461bcd60e51b815260206004820152601460248201527311d85b5948185b1c9958591e481cdd185c9d195960621b604482015260640161047f565b600c810154600460ff909116106116695760405162461bcd60e51b8152602060048201526009602482015268149bdbdb48199d5b1b60ba1b604482015260640161047f565b600c81015460ff166116b35760405162461bcd60e51b8152602060048201526013602482015272149bdbdb48191bd95cc81b9bdd08195e1a5cdd606a1b604482015260640161047f565b6116f06001600160a01b037f0000000000000000000000000000000000000000000000000000000000000000163330670de0b6b3a76400006122a4565b600c8101546040805160e0810190915233815260ff90911690602081016117206702c68af0bb140000600a613583565b6001600160801b0316815260006020820181905260408201819052606082018190526080820181905260a0909101528260ff83166004811061176457611764613443565b82516003919091029190910180546001600160a01b0319166001600160a01b03909216919091178155602082015160018201805460408501516060860151608087015160a08801516001600160801b039096166001600160881b031990941693909317600160801b60ff938416021761ffff60881b1916600160881b9183169190910260ff60901b191617600160901b921515929092029190911760ff60981b1916600160981b9315159390930292909217905560c090920151600290910155600c83018054909116906000611839836134ee565b91906101000a81548160ff021916908360ff16021790555050670de0b6b3a76400008260160160008282829054906101000a90046001600160801b03166118809190613543565b82546001600160801b039182166101009390930a92830291909202199091161790555033600081815261016b6020908152604091829020869055905160ff8416815285917f267de9464a1783407eb0e8ba56bcd59ef059648e576c0703bfd6a3b84355e831910160405180910390a3505050565b6118fc612225565b6001600160a01b03811661192657604051631e4fbdf760e01b81526000600482015260240161047f565b61192f81612252565b50565b61193a611d5d565b600082815261016a60205260409020601481015460ff16801561196757506014810154610100900460ff16155b6119835760405162461bcd60e51b815260040161047f90613459565b600061198f8233611cc1565b600c83015490915060ff80831661010090920416146119e05760405162461bcd60e51b815260206004820152600d60248201526c2737ba103cb7bab9103a3ab93760991b604482015260640161047f565b8260ff16826000018260ff16600481106119fc576119fc613443565b6003020160010160109054906101000a900460ff1660ff1614611a545760405162461bcd60e51b815260206004820152601060248201526f139bdd081bdb881d1a1a5cc818d95b1b60821b604482015260640161047f565b81600d018360ff1660288110611a6c57611a6c613443565b60088104919091015460079091166004026101000a900463ffffffff1615611ac65760405162461bcd60e51b815260206004820152600d60248201526c105b1c9958591e481bdddb9959609a1b604482015260640161047f565b611acf8361252e565b611b0c5760405162461bcd60e51b815260206004820152600e60248201526d4e6f7420612070726f706572747960901b604482015260640161047f565b600060028460ff1660288110611b2457611b24613443565b60090201600101549050806001600160801b0316836000018360ff1660048110611b5057611b50613443565b60030201600101546001600160801b03161015611ba65760405162461bcd60e51b8152602060048201526014602482015273496e73756666696369656e742062616c616e636560601b604482015260640161047f565b808360ff841660048110611bbc57611bbc613443565b6003020160010160008282829054906101000a90046001600160801b0316611be491906135ad565b92506101000a8154816001600160801b0302191690836001600160801b03160217905550816001611c1591906134d5565b60ff1683600d018560ff1660288110611c3057611c30613443565b600891828204019190066004026101000a81548163ffffffff021916908363ffffffff160217905550336001600160a01b0316857f3e5303065e535760d0f262dfb1b1dd0f5711c73c37e62d4a4551f5406794520e8684604051611cac92919060ff9290921682526001600160801b0316602082015260400190565b60405180910390a3505050610a5e6001600055565b6000805b600c84015460ff9081169082161015611d19576001600160a01b0383168460ff831660048110611cf757611cf7613443565b60030201546001600160a01b031603611d11579050611d57565b600101611cc5565b5060405162461bcd60e51b8152602060048201526012602482015271506c61796572206e6f7420696e2067616d6560701b604482015260640161047f565b92915050565b600260005403611d8057604051633ee5aeb560e01b815260040160405180910390fd5b6002600055565b600083815261016a60205260408120908160ff851660048110611dac57611dac613443565b600302019050826001600160801b03168160010160009054906101000a90046001600160801b03166001600160801b03161015611df457611ded8585612311565b5050505050565b600181018054849190600090611e149084906001600160801b03166135ad565b92506101000a8154816001600160801b0302191690836001600160801b031602179055505050505050565b600081815261016a60205260408120600c81015490919060ff80821691611e6e916101009091041660016134d5565b611e789190613521565b905060005b8260ff831660048110611e9257611e92613443565b6003020160010160129054906101000a900460ff168015611eb6575060048160ff16105b15611eec57600c83015460ff16611ece8360016134d5565b611ed89190613521565b915080611ee4816134ee565b915050611e7d565b600c8301805461ff00191661010060ff85169081029190911790915542601585015584907f1c5eb9817dbb76f2170b1173d0edb60def577169d9ae0a561425cdcb4903204b908490869060048110611f4657611f46613443565b60030201546040805160ff90931683526001600160a01b0390911660208301520160405180910390a250505050565b600084815261016a6020526040812090600260ff851660288110611f9b57611f9b613443565b600902015460ff1690506001816009811115611fb957611fb9613238565b1480611fd657506004816009811115611fd457611fd4613238565b145b80611ff257506007816009811115611ff057611ff0613238565b145b1561208c57600082600d018560ff166028811061201157612011613443565b60088104919091015460079091166004026101000a900463ffffffff169050801580159061205257506120458660016134d5565b60ff168163ffffffff1614155b15612086576000612064600183613607565b90506000612074898884896125a4565b9050612083898984848b612786565b50505b5061221d565b60088160098111156120a0576120a0613238565b0361216d57600a8260ff8716600481106120bc576120bc613443565b6003020160010160106101000a81548160ff021916908360ff1602179055506001826000018660ff16600481106120f5576120f5613443565b6003020160010160116101000a81548160ff021916908360ff160217905550816000018560ff166004811061212c5761212c613443565b60030201546040516001600160a01b039091169087907f1ef8a324434f419814dbbb29f35c938014c3fbcaf835e017c5efd649e6c563dd90600090a361221d565b600581600981111561218157612181613238565b036121a15760006121936010856134c1565b90506120868787838761295e565b60028160098111156121b5576121b5613238565b036121d55760006121c76010856134c1565b905061208687878387612b8c565b60038160098111156121e9576121e9613238565b0361221d57600060028560ff166028811061220657612206613443565b6009020160010154905061221b878783611d87565b505b505050505050565b6001546001600160a01b03163314610a745760405163118cdaa760e01b815233600482015260240161047f565b600180546001600160a01b038381166001600160a01b0319831681179093556040519116919082907f8be0079c531659141344cd1fd0a4f28419497f9722a3daafe3b4186f6b6457e090600090a35050565b6040516001600160a01b03848116602483015283811660448301526064820183905261230b9186918216906323b872dd906084015b604051602081830303815290604052915060e01b6020820180516001600160e01b038381831617835250505050612d1d565b50505050565b600082815261016a6020526040902060018160ff84166004811061233757612337613443565b60030201600101805460ff60901b1916600160901b92151592909202919091179055600c8101805460ff620100009091041690600261237583613624565b91906101000a81548160ff021916908360ff16021790555050600061016b6000836000018560ff16600481106123ad576123ad613443565b60030201546001600160a01b031681526020810191909152604001600020558060ff8316600481106123e1576123e1613443565b60030201546040516001600160a01b039091169084907f0a76487617d737834c1daed9e85e18d5a7032bef9405b1f1def2b499789a0dd190600090a3600c81015462010000900460ff166001036124405761243b83612d80565b505050565b61243b83611e3f565b60008080805b602860ff82161015612509578460000b60028260ff166028811061247557612475613443565b6009020154610100900460000b14801561249357506124938161252e565b1561250157816124a2816134ee565b92506124b190508660016134d5565b60ff1687600d018260ff16602881106124cc576124cc613443565b600891828204019190066004029054906101000a900463ffffffff1663ffffffff160361250157826124fd816134ee565b9350505b60010161244f565b508060ff168260ff16148015612522575060008160ff16115b925050505b9392505050565b60008060028360ff166028811061254757612547613443565b600902015460ff169050600181600981111561256557612565613238565b14806125825750600481600981111561258057612580613238565b145b806125275750600781600981111561259c5761259c613238565b149392505050565b600084815261016a60205260408120816012820160ff8716602881106125cc576125cc613443565b602091828204019190069054906101000a900460ff169050600060028760ff16602881106125fc576125fc613443565b6040805160c0810191829052926009929092029091016003019060069082845b81548152602001906001019080831161261c57509394506004935061264092505050565b60028860ff166028811061265657612656613443565b6009908102919091015460ff169081111561267357612673613238565b036126b757600061268684886008612f85565b905081612694600183613641565b60ff16600681106126a7576126a7613443565b602002015194505050505061277e565b600760028860ff16602881106126cf576126cf613443565b6009908102919091015460ff16908111156126ec576126ec613238565b0361275e5760006126ff84886009612f85565b9050600061270e600b886134c1565b6127199060026134d5565b90508160ff1660021461272d576004612730565b600a5b60ff168160ff16612741919061365a565b6127529066038d7ea4c6800061365a565b9550505050505061277e565b808260ff166006811061277357612773613443565b602002015193505050505b949350505050565b600085815261016a602052604090206001600160801b0383168160ff8716600481106127b4576127b4613443565b60030201600101546001600160801b031610156127fd578060ff8616600481106127e0576127e0613443565b60030201600101546001600160801b031692506127fd8686612311565b828160ff87166004811061281357612813613443565b6003020160010160008282829054906101000a90046001600160801b031661283b91906135ad565b92506101000a8154816001600160801b0302191690836001600160801b0316021790555082816000018560ff166004811061287857612878613443565b6003020160010160008282829054906101000a90046001600160801b03166128a09190613543565b92506101000a8154816001600160801b0302191690836001600160801b03160217905550806000018460ff16600481106128dc576128dc613443565b60030201546001600160a01b03168160ff8716600481106128ff576128ff613443565b6003020154604080516001600160801b038716815260ff861660208201526001600160a01b039092169189917f172f18f0ff562013895e51a4e5b5a223eb302d8b4e466ca9e533b4bd640dee80910160405180910390a4505050505050565b604080516102008101825266b1a2bc2ec50000815267016345785d89ffff196020820152670214e8348c4f00009181019190915267011c37937e07ffff19606082015267010a741a46278000608082015266d529ae9e85ffff1960a08201526702c68af0bb14000060c0820152670214e8348c4effff1960e0820152668e1bc9bf04000061010082015266b1a2bc2ec4ffff1961012082015267013fbe85edc900006101408201526702c68af0bb13ffff196101608201526701aa535d3d0c0000610180820152668e1bc9bf03ffff196101a082015266c3663566a580006101c0820152666a94d74f4300006101e082015260008160ff851660108110612a6757612a67613443565b6020020151905061016a60008781526020019081526020016000206000018560ff1660048110612a9957612a99613443565b6003020154604080516000815260ff87166020820152600f84900b918101919091526001600160a01b039091169087907f6d4b5f629b03fc98ea06f51d610426c881c24c8d029471e9e359335f7f743eb7906060015b60405180910390a3600081600f0b1315612b7957600086815261016a60205260409020819060ff871660048110612b2857612b28613443565b6003020160010160008282829054906101000a90046001600160801b0316612b509190613543565b92506101000a8154816001600160801b0302191690836001600160801b0316021790555061221d565b61221d8686612b8784613685565b611d87565b604080516102008101825266b1a2bc2ec500008152670214e8348c4effff196020820152666a94d74f4300009181019190915267010a741a462780006060820152668e1bc9bf040000608082015266b1a2bc2ec4ffff1960a08201526702c68af0bb14000060c082015267012dfb0cb5e87fff1960e082015267011c37937e080000610100820152669fdf42f6e4800061012082015266d529ae9e85ffff1961014082015266d529ae9e860000610160820152670186cc6acd4b0000610180820152667c585087237fff196101a082015267015181ff25a980006101c08201526658d15e176280006101e082015260008160ff851660108110612c9157612c91613443565b6020020151905061016a60008781526020019081526020016000206000018560ff1660048110612cc357612cc3613443565b6003020154604080516001815260ff87166020820152600f84900b918101919091526001600160a01b039091169087907f6d4b5f629b03fc98ea06f51d610426c881c24c8d029471e9e359335f7f743eb790606001612aef565b6000612d326001600160a01b03841683613031565b90508051600014158015612d57575080806020019051810190612d5591906136b4565b155b1561243b57604051635274afe760e01b81526001600160a01b038416600482015260240161047f565b600081815261016a6020526040812060148101805461ff00191661010017905590805b600c83015460ff9081169082161015612e26578260ff821660048110612dcb57612dcb613443565b6003020160010160129054906101000a900460ff16612e1e578260ff821660048110612df957612df9613443565b60030201546001600160a01b0316600081815261016b60205260408120559150612e26565b600101612da3565b5060168201546001600160801b0316612e696001600160a01b037f000000000000000000000000000000000000000000000000000000000000000016838361303f565b61016d546040516376fb280b60e01b81526001600160a01b03848116600483015260248201879052909116906376fb280b906044016020604051808303816000875af1158015612ebd573d6000803e3d6000fd5b505050506040513d601f19601f82011682018060405250810190612ee191906136d6565b5061016e54604051634b163dfd60e11b81526001600160a01b038481166004830152602482018490529091169063962c7bfa90604401600060405180830381600087803b158015612f3157600080fd5b505af1158015612f45573d6000803e3d6000fd5b50505050816001600160a01b0316847ff1898de79c348962fab7695532341027e5bceb0ea2a8785790fa7d7efeeee1298360405161051d91815260200190565b6000805b602860ff82161015613029578260000b60028260ff1660288110612faf57612faf613443565b6009020154610100900460000b14801561300e5750612fcf8460016134d5565b60ff1685600d018260ff1660288110612fea57612fea613443565b600891828204019190066004029054906101000a900463ffffffff1663ffffffff16145b15613021578161301d816134ee565b9250505b600101612f89565b509392505050565b606061252783836000613070565b6040516001600160a01b0383811660248301526044820183905261243b91859182169063a9059cbb906064016122d9565b6060814710156130955760405163cd78605960e01b815230600482015260240161047f565b600080856001600160a01b031684866040516130b191906136ef565b60006040518083038185875af1925050503d80600081146130ee576040519150601f19603f3d011682016040523d82523d6000602084013e6130f3565b606091505b50915091506125228683836060826131135761310e8261315a565b612527565b815115801561312a57506001600160a01b0384163b155b1561315357604051639996b31560e01b81526001600160a01b038516600482015260240161047f565b5080612527565b80511561316a5780518082602001fd5b604051630a12f52160e11b815260040160405180910390fd5b60405180608001604052806004905b6040805160e08101825260008082526020808301829052928201819052606082018190526080820181905260a0820181905260c082015282526000199092019101816131925790505090565b6040518061050001604052806028906020820280368337509192915050565b60006020828403121561320f57600080fd5b5035919050565b6000806040838503121561322957600080fd5b50508035926020909101359150565b634e487b7160e01b600052602160045260246000fd5b60808101600a861061327057634e487b7160e01b600052602160045260246000fd5b94815260009390930b6020840152604083019190915260609091015290565b6000602082840312156132a157600080fd5b81356001600160a01b038116811461252757600080fd5b8060005b602881101561230b57815163ffffffff168452602093840193909101906001016132bc565b8060005b602881101561230b57815160ff168452602093840193909101906001016132e5565b610e608101818c60005b600481101561339257815180516001600160a01b031684526020808201516001600160801b03168186015260408083015160ff908116918701919091526060808401519091169086015260808083015115159086015260a08083015115159086015260c0918201519185019190915260e09093019290910190600101613311565b50505060ff8b1661038083015260ff8a166103a083015260ff89166103c08301526133c16103e08301896132b8565b6133cf6108e08301886132e1565b851515610de0830152841515610e0083015283610e208301526133fe610e408301846001600160801b03169052565b9b9a5050505050505050505050565b6000806040838503121561342057600080fd5b82359150602083013560ff8116811461343857600080fd5b809150509250929050565b634e487b7160e01b600052603260045260246000fd5b6020808252600f908201526e47616d65206e6f742061637469766560881b604082015260600190565b634e487b7160e01b600052601160045260246000fd5b81810381811115611d5757611d57613482565b634e487b7160e01b600052601260045260246000fd5b6000826134d0576134d06134ab565b500690565b60ff8181168382160190811115611d5757611d57613482565b600060ff821660ff810361350457613504613482565b60010192915050565b60008261351c5761351c6134ab565b500490565b600060ff831680613534576135346134ab565b8060ff84160691505092915050565b6001600160801b0381811683821601908082111561356357613563613482565b5092915050565b60006001820161357c5761357c613482565b5060010190565b8082028115828204841417611d5757611d57613482565b80820180821115611d5757611d57613482565b6001600160801b0382811682821603908082111561356357613563613482565b60808101818360005b60048110156135fe5781516001600160a01b03168352602092830192909101906001016135d6565b50505092915050565b63ffffffff82811682821603908082111561356357613563613482565b600060ff82168061363757613637613482565b6000190192915050565b60ff8281168282160390811115611d5757611d57613482565b6001600160801b0381811683821602808216919082811461367d5761367d613482565b505092915050565b600081600f0b6f7fffffffffffffffffffffffffffffff1981036136ab576136ab613482565b60000392915050565b6000602082840312156136c657600080fd5b8151801515811461252757600080fd5b6000602082840312156136e857600080fd5b5051919050565b6000825160005b8181101561371057602081860181015185830152016136f6565b50600092019182525091905056fea26469706673582212201070581410ba58a7609e744352e44f94053a6df74337295ab872978dd7b9d67b64736f6c63430008180033","linkReferences":{}},"methodIdentifiers":{"BOARD(uint256)":"8888200b","BOARD_SIZE()":"dc4a3e95","ENTRY_STAKE()":"80326515","GO_SALARY()":"1bf98fdb","GO_SALARY_WEI()":"0379c8bc","TURN_TIMEOUT()":"5e82ff65","activeGame(address)":"a83d3e8d","buildHouse(uint256,uint8)":"bd154b33","buyProperty(uint256,uint8)":"f71d8d46","cUSD()":"1fccf672","claimTimeout(uint256)":"86e773f1","commitNonce(uint256,bytes32)":"1c56c451","createGame()":"7255d729","games(uint256)":"117a5b90","getGameRoom(uint256)":"bcdafed1","joinGame(uint256)":"efaa55a0","leaderboardContract()":"ff0224d3","nextGameId()":"b135bbb0","owner()":"8da5cb5b","renounceOwnership()":"715018a6","rollDice(uint256,uint256)":"370e9161","startGame(uint256)":"e5ed1d59","transferOwnership(address)":"f2fde38b","trophyContract()":"de49aae1"},"id":36}