{"abi":[{"type":"constructor","inputs":[{"name":"gameContract","type":"address","internalType":"address"}],"stateMutability":"nonpayable"},{"type":"function","name":"DEFAULT_ADMIN_ROLE","inputs":[],"outputs":[{"name":"","type":"bytes32","internalType":"bytes32"}],"stateMutability":"view"},{"type":"function","name":"MINTER_ROLE","inputs":[],"outputs":[{"name":"","type":"bytes32","internalType":"bytes32"}],"stateMutability":"view"},{"type":"function","name":"approve","inputs":[{"name":"to","type":"address","internalType":"address"},{"name":"tokenId","type":"uint256","internalType":"uint256"}],"outputs":[],"stateMutability":"nonpayable"},{"type":"function","name":"balanceOf","inputs":[{"name":"owner","type":"address","internalType":"address"}],"outputs":[{"name":"","type":"uint256","internalType":"uint256"}],"stateMutability":"view"},{"type":"function","name":"getApproved","inputs":[{"name":"tokenId","type":"uint256","internalType":"uint256"}],"outputs":[{"name":"","type":"address","internalType":"address"}],"stateMutability":"view"},{"type":"function","name":"getRoleAdmin","inputs":[{"name":"role","type":"bytes32","internalType":"bytes32"}],"outputs":[{"name":"","type":"bytes32","internalType":"bytes32"}],"stateMutability":"view"},{"type":"function","name":"grantRole","inputs":[{"name":"role","type":"bytes32","internalType":"bytes32"},{"name":"account","type":"address","internalType":"address"}],"outputs":[],"stateMutability":"nonpayable"},{"type":"function","name":"hasRole","inputs":[{"name":"role","type":"bytes32","internalType":"bytes32"},{"name":"account","type":"address","internalType":"address"}],"outputs":[{"name":"","type":"bool","internalType":"bool"}],"stateMutability":"view"},{"type":"function","name":"isApprovedForAll","inputs":[{"name":"owner","type":"address","internalType":"address"},{"name":"operator","type":"address","internalType":"address"}],"outputs":[{"name":"","type":"bool","internalType":"bool"}],"stateMutability":"view"},{"type":"function","name":"mintTrophy","inputs":[{"name":"to","type":"address","internalType":"address"},{"name":"gameId","type":"uint256","internalType":"uint256"}],"outputs":[{"name":"tokenId","type":"uint256","internalType":"uint256"}],"stateMutability":"nonpayable"},{"type":"function","name":"name","inputs":[],"outputs":[{"name":"","type":"string","internalType":"string"}],"stateMutability":"view"},{"type":"function","name":"ownerOf","inputs":[{"name":"tokenId","type":"uint256","internalType":"uint256"}],"outputs":[{"name":"","type":"address","internalType":"address"}],"stateMutability":"view"},{"type":"function","name":"renounceRole","inputs":[{"name":"role","type":"bytes32","internalType":"bytes32"},{"name":"callerConfirmation","type":"address","internalType":"address"}],"outputs":[],"stateMutability":"nonpayable"},{"type":"function","name":"revokeRole","inputs":[{"name":"role","type":"bytes32","internalType":"bytes32"},{"name":"account","type":"address","internalType":"address"}],"outputs":[],"stateMutability":"nonpayable"},{"type":"function","name":"safeTransferFrom","inputs":[{"name":"from","type":"address","internalType":"address"},{"name":"to","type":"address","internalType":"address"},{"name":"tokenId","type":"uint256","internalType":"uint256"}],"outputs":[],"stateMutability":"nonpayable"},{"type":"function","name":"safeTransferFrom","inputs":[{"name":"from","type":"address","internalType":"address"},{"name":"to","type":"address","internalType":"address"},{"name":"tokenId","type":"uint256","internalType":"uint256"},{"name":"data","type":"bytes","internalType":"bytes"}],"outputs":[],"stateMutability":"nonpayable"},{"type":"function","name":"setApprovalForAll","inputs":[{"name":"operator","type":"address","internalType":"address"},{"name":"approved","type":"bool","internalType":"bool"}],"outputs":[],"stateMutability":"nonpayable"},{"type":"function","name":"supportsInterface","inputs":[{"name":"interfaceId","type":"bytes4","internalType":"bytes4"}],"outputs":[{"name":"","type":"bool","internalType":"bool"}],"stateMutability":"view"},{"type":"function","name":"symbol","inputs":[],"outputs":[{"name":"","type":"string","internalType":"string"}],"stateMutability":"view"},{"type":"function","name":"tokenURI","inputs":[{"name":"tokenId","type":"uint256","internalType":"uint256"}],"outputs":[{"name":"","type":"string","internalType":"string"}],"stateMutability":"view"},{"type":"function","name":"transferFrom","inputs":[{"name":"from","type":"address","internalType":"address"},{"name":"to","type":"address","internalType":"address"},{"name":"tokenId","type":"uint256","internalType":"uint256"}],"outputs":[],"stateMutability":"nonpayable"},{"type":"function","name":"trophyData","inputs":[{"name":"","type":"uint256","internalType":"uint256"}],"outputs":[{"name":"winner","type":"address","internalType":"address"},{"name":"gameId","type":"uint256","internalType":"uint256"},{"name":"timestamp","type":"uint256","internalType":"uint256"}],"stateMutability":"view"},{"type":"event","name":"Approval","inputs":[{"name":"owner","type":"address","indexed":true,"internalType":"address"},{"name":"approved","type":"address","indexed":true,"internalType":"address"},{"name":"tokenId","type":"uint256","indexed":true,"internalType":"uint256"}],"anonymous":false},{"type":"event","name":"ApprovalForAll","inputs":[{"name":"owner","type":"address","indexed":true,"internalType":"address"},{"name":"operator","type":"address","indexed":true,"internalType":"address"},{"name":"approved","type":"bool","indexed":false,"internalType":"bool"}],"anonymous":false},{"type":"event","name":"RoleAdminChanged","inputs":[{"name":"role","type":"bytes32","indexed":true,"internalType":"bytes32"},{"name":"previousAdminRole","type":"bytes32","indexed":true,"internalType":"bytes32"},{"name":"newAdminRole","type":"bytes32","indexed":true,"internalType":"bytes32"}],"anonymous":false},{"type":"event","name":"RoleGranted","inputs":[{"name":"role","type":"bytes32","indexed":true,"internalType":"bytes32"},{"name":"account","type":"address","indexed":true,"internalType":"address"},{"name":"sender","type":"address","indexed":true,"internalType":"address"}],"anonymous":false},{"type":"event","name":"RoleRevoked","inputs":[{"name":"role","type":"bytes32","indexed":true,"internalType":"bytes32"},{"name":"account","type":"address","indexed":true,"internalType":"address"},{"name":"sender","type":"address","indexed":true,"internalType":"address"}],"anonymous":false},{"type":"event","name":"Transfer","inputs":[{"name":"from","type":"address","indexed":true,"internalType":"address"},{"name":"to","type":"address","indexed":true,"internalType":"address"},{"name":"tokenId","type":"uint256","indexed":true,"internalType":"uint256"}],"anonymous":false},{"type":"error","name":"AccessControlBadConfirmation","inputs":[]},{"type":"error","name":"AccessControlUnauthorizedAccount","inputs":[{"name":"account","type":"address","internalType":"address"},{"name":"neededRole","type":"bytes32","internalType":"bytes32"}]},{"type":"error","name":"ERC721IncorrectOwner","inputs":[{"name":"sender","type":"address","internalType":"address"},{"name":"tokenId","type":"uint256","internalType":"uint256"},{"name":"owner","type":"address","internalType":"address"}]},{"type":"error","name":"ERC721InsufficientApproval","inputs":[{"name":"operator","type":"address","internalType":"address"},{"name":"tokenId","type":"uint256","internalType":"uint256"}]},{"type":"error","name":"ERC721InvalidApprover","inputs":[{"name":"approver","type":"address","internalType":"address"}]},{"type":"error","name":"ERC721InvalidOperator","inputs":[{"name":"operator","type":"address","internalType":"address"}]},{"type":"error","name":"ERC721InvalidOwner","inputs":[{"name":"owner","type":"address","internalType":"address"}]},{"type":"error","name":"ERC721InvalidReceiver","inputs":[{"name":"receiver","type":"address","internalType":"address"}]},{"type":"error","name":"ERC721InvalidSender","inputs":[{"name":"sender","type":"address","internalType":"address"}]},{"type":"error","name":"ERC721NonexistentToken","inputs":[{"name":"tokenId","type":"uint256","internalType":"uint256"}]}],"bytecode":{"object":"0x608060405260016007553480156200001657600080fd5b50604051620021e5380380620021e583398101604081905262000039916200019b565b6040518060400160405280600f81526020016e43656c6f506f6c592054726f70687960881b815250604051806040016040528060078152602001664350545250485960c81b815250816000908162000092919062000274565b506001620000a1828262000274565b50620000b391506000905033620000e8565b50620000e07f9f2df0fed2c77648de5860a4cc508cd0818c85b8b8a1ab4ceeef8d981c8956a682620000e8565b505062000340565b60008281526006602090815260408083206001600160a01b038516845290915281205460ff16620001915760008381526006602090815260408083206001600160a01b03861684529091529020805460ff19166001179055620001483390565b6001600160a01b0316826001600160a01b0316847f2f8788117e7eff1d82e926ec794901d17c78024a50270940304540a733656f0d60405160405180910390a450600162000195565b5060005b92915050565b600060208284031215620001ae57600080fd5b81516001600160a01b0381168114620001c657600080fd5b9392505050565b634e487b7160e01b600052604160045260246000fd5b600181811c90821680620001f857607f821691505b6020821081036200021957634e487b7160e01b600052602260045260246000fd5b50919050565b601f8211156200026f576000816000526020600020601f850160051c810160208610156200024a5750805b601f850160051c820191505b818110156200026b5782815560010162000256565b5050505b505050565b81516001600160401b03811115620002905762000290620001cd565b620002a881620002a18454620001e3565b846200021f565b602080601f831160018114620002e05760008415620002c75750858301515b600019600386901b1c1916600185901b1785556200026b565b600085815260208120601f198616915b828110156200031157888601518255948401946001909101908401620002f0565b5085821015620003305787850151600019600388901b60f8161c191681555b5050505050600190811b01905550565b611e9580620003506000396000f3fe608060405234801561001057600080fd5b50600436106101425760003560e01c806370a08231116100b8578063a22cb4651161007c578063a22cb465146102fb578063b88d4fde1461030e578063c87b56dd14610321578063d539139314610334578063d547741f1461035b578063e985e9c51461036e57600080fd5b806370a08231146102b257806376fb280b146102c557806391d14854146102d857806395d89b41146102eb578063a217fddf146102f357600080fd5b8063248a9ca31161010a578063248a9ca3146101d75780632f2ff15d1461020857806336568abe1461021b57806342842e0e1461022e5780635367d7f1146102415780636352211e1461029f57600080fd5b806301ffc9a71461014757806306fdde031461016f578063081812fc14610184578063095ea7b3146101af57806323b872dd146101c4575b600080fd5b61015a6101553660046113a1565b610381565b60405190151581526020015b60405180910390f35b610177610392565b6040516101669190611415565b610197610192366004611428565b610424565b6040516001600160a01b039091168152602001610166565b6101c26101bd36600461145d565b61044d565b005b6101c26101d2366004611487565b61045c565b6101fa6101e5366004611428565b60009081526006602052604090206001015490565b604051908152602001610166565b6101c26102163660046114c3565b6104ec565b6101c26102293660046114c3565b610511565b6101c261023c366004611487565b610549565b61027a61024f366004611428565b6008602052600090815260409020805460018201546002909201546001600160a01b03909116919083565b604080516001600160a01b039094168452602084019290925290820152606001610166565b6101976102ad366004611428565b610564565b6101fa6102c03660046114ef565b61056f565b6101fa6102d336600461145d565b6105b7565b61015a6102e63660046114c3565b610662565b61017761068d565b6101fa600081565b6101c261030936600461150a565b61069c565b6101c261031c36600461155c565b6106a7565b61017761032f366004611428565b6106be565b6101fa7f9f2df0fed2c77648de5860a4cc508cd0818c85b8b8a1ab4ceeef8d981c8956a681565b6101c26103693660046114c3565b6107e6565b61015a61037c366004611638565b61080b565b600061038c82610839565b92915050565b6060600080546103a190611662565b80601f01602080910402602001604051908101604052809291908181526020018280546103cd90611662565b801561041a5780601f106103ef5761010080835404028352916020019161041a565b820191906000526020600020905b8154815290600101906020018083116103fd57829003601f168201915b5050505050905090565b600061042f8261085e565b506000828152600460205260409020546001600160a01b031661038c565b610458828233610897565b5050565b6001600160a01b03821661048b57604051633250574960e11b8152600060048201526024015b60405180910390fd5b60006104988383336108a4565b9050836001600160a01b0316816001600160a01b0316146104e6576040516364283d7b60e01b81526001600160a01b0380861660048301526024820184905282166044820152606401610482565b50505050565b6000828152600660205260409020600101546105078161099d565b6104e683836109aa565b6001600160a01b038116331461053a5760405163334bd91960e11b815260040160405180910390fd5b6105448282610a3e565b505050565b610544838383604051806020016040528060008152506106a7565b600061038c8261085e565b60006001600160a01b03821661059b576040516322718ad960e21b815260006004820152602401610482565b506001600160a01b031660009081526003602052604090205490565b60007f9f2df0fed2c77648de5860a4cc508cd0818c85b8b8a1ab4ceeef8d981c8956a66105e38161099d565b600780549060006105f3836116b2565b90915550604080516060810182526001600160a01b0387811682526020808301888152428486019081526000878152600890935294909120925183546001600160a01b03191692169190911782555160018201559051600290910155915061065b8483610aab565b5092915050565b60009182526006602090815260408084206001600160a01b0393909316845291905290205460ff1690565b6060600180546103a190611662565b610458338383610ac5565b6106b284848461045c565b6104e684848484610b64565b60606106c98261085e565b506000828152600860209081526040808320815160608101835281546001600160a01b03168152600182015493810184905260029091015491810191909152919061071390610c8d565b8251610729906001600160a01b03166014610d20565b60405160200161073a9291906116e7565b604051602081830303815290604052905060006107ba61075986610c8d565b6107668560200151610c8d565b61076f85610e7e565b61077c8760200151610c8d565b8751610792906001600160a01b03166014610d20565b6040516020016107a6959493929190611b4e565b604051602081830303815290604052610e7e565b9050806040516020016107cd9190611ce7565b6040516020818303038152906040529350505050919050565b6000828152600660205260409020600101546108018161099d565b6104e68383610a3e565b6001600160a01b03918216600090815260056020908152604080832093909416825291909152205460ff1690565b60006001600160e01b03198216637965db0b60e01b148061038c575061038c82610fde565b6000818152600260205260408120546001600160a01b03168061038c57604051637e27328960e01b815260048101849052602401610482565b610544838383600161102e565b6000828152600260205260408120546001600160a01b03908116908316156108d1576108d1818486611134565b6001600160a01b0381161561090f576108ee60008560008061102e565b6001600160a01b038116600090815260036020526040902080546000190190555b6001600160a01b0385161561093e576001600160a01b0385166000908152600360205260409020805460010190555b60008481526002602052604080822080546001600160a01b0319166001600160a01b0389811691821790925591518793918516917fddf252ad1be2c89b69c2b068fc378daa952ba7f163c4a11628f55a4df523b3ef91a4949350505050565b6109a78133611198565b50565b60006109b68383610662565b610a365760008381526006602090815260408083206001600160a01b03861684529091529020805460ff191660011790556109ee3390565b6001600160a01b0316826001600160a01b0316847f2f8788117e7eff1d82e926ec794901d17c78024a50270940304540a733656f0d60405160405180910390a450600161038c565b50600061038c565b6000610a4a8383610662565b15610a365760008381526006602090815260408083206001600160a01b0386168085529252808320805460ff1916905551339286917ff6391f5c32d9c69d2a47ea670b442974b53935d1edc7fd64eb21e047a839171b9190a450600161038c565b6104588282604051806020016040528060008152506111d1565b6001600160a01b038216610af757604051630b61174360e31b81526001600160a01b0383166004820152602401610482565b6001600160a01b03838116600081815260056020908152604080832094871680845294825291829020805460ff191686151590811790915591519182527f17307eab39ab6107e8899845ad3d59bd9653f200f220920489ca2b5937696c31910160405180910390a3505050565b6001600160a01b0383163b156104e657604051630a85bd0160e11b81526001600160a01b0384169063150b7a0290610ba6903390889087908790600401611d2c565b6020604051808303816000875af1925050508015610be1575060408051601f3d908101601f19168201909252610bde91810190611d69565b60015b610c4a573d808015610c0f576040519150601f19603f3d011682016040523d82523d6000602084013e610c14565b606091505b508051600003610c4257604051633250574960e11b81526001600160a01b0385166004820152602401610482565b805181602001fd5b6001600160e01b03198116630a85bd0160e11b14610c8657604051633250574960e11b81526001600160a01b0385166004820152602401610482565b5050505050565b60606000610c9a836111e8565b600101905060008167ffffffffffffffff811115610cba57610cba611546565b6040519080825280601f01601f191660200182016040528015610ce4576020820181803683370190505b5090508181016020015b600019016f181899199a1a9b1b9c1cb0b131b232b360811b600a86061a8153600a8504945084610cee57509392505050565b60606000610d2f836002611d86565b610d3a906002611d9d565b67ffffffffffffffff811115610d5257610d52611546565b6040519080825280601f01601f191660200182016040528015610d7c576020820181803683370190505b509050600360fc1b81600081518110610d9757610d97611db0565b60200101906001600160f81b031916908160001a905350600f60fb1b81600181518110610dc657610dc6611db0565b60200101906001600160f81b031916908160001a9053506000610dea846002611d86565b610df5906001611d9d565b90505b6001811115610e7657600a85600f1610610e13576027610e16565b60005b60ff16610e27600f87166030611d9d565b610e319190611d9d565b60f81b828281518110610e4657610e46611db0565b60200101906001600160f81b031916908160001a90535060049490941c9380610e6e81611dc6565b915050610df8565b509392505050565b60608151600003610e9d57505060408051602081019091526000815290565b6000604051806060016040528060408152602001611e006040913990506000600384516002610ecc9190611d9d565b610ed69190611ddd565b610ee1906004611d86565b67ffffffffffffffff811115610ef957610ef9611546565b6040519080825280601f01601f191660200182016040528015610f23576020820181803683370190505b50905060018201602082018586518701602081018051600082525b82841015610f99576003840193508351603f8160121c168701518653600186019550603f81600c1c168701518653600186019550603f8160061c168701518653600186019550603f8116870151865350600185019450610f3e565b9052505085516003900660018114610fb85760028114610fcb57610fd3565b603d6001830353603d6002830353610fd3565b603d60018303535b509195945050505050565b60006001600160e01b031982166380ac58cd60e01b148061100f57506001600160e01b03198216635b5e139f60e01b145b8061038c57506301ffc9a760e01b6001600160e01b031983161461038c565b808061104257506001600160a01b03821615155b156111045760006110528461085e565b90506001600160a01b0383161580159061107e5750826001600160a01b0316816001600160a01b031614155b8015611091575061108f818461080b565b155b156110ba5760405163a9fbf51f60e01b81526001600160a01b0384166004820152602401610482565b81156111025783856001600160a01b0316826001600160a01b03167f8c5be1e5ebec7d5bd14f71427d1e84f3dd0314c0f7b2291e5b200ac8c7c3b92560405160405180910390a45b505b5050600090815260046020526040902080546001600160a01b0319166001600160a01b0392909216919091179055565b61113f8383836112c0565b610544576001600160a01b03831661116d57604051637e27328960e01b815260048101829052602401610482565b60405163177e802f60e01b81526001600160a01b038316600482015260248101829052604401610482565b6111a28282610662565b6104585760405163e2517d3f60e01b81526001600160a01b038216600482015260248101839052604401610482565b6111db8383611326565b6105446000848484610b64565b60008072184f03e93ff9f4daa797ed6e38ed64bf6a1f0160401b83106112275772184f03e93ff9f4daa797ed6e38ed64bf6a1f0160401b830492506040015b6d04ee2d6d415b85acef81000000008310611253576d04ee2d6d415b85acef8100000000830492506020015b662386f26fc10000831061127157662386f26fc10000830492506010015b6305f5e1008310611289576305f5e100830492506008015b612710831061129d57612710830492506004015b606483106112af576064830492506002015b600a831061038c5760010192915050565b60006001600160a01b0383161580159061131e5750826001600160a01b0316846001600160a01b031614806112fa57506112fa848461080b565b8061131e57506000828152600460205260409020546001600160a01b038481169116145b949350505050565b6001600160a01b03821661135057604051633250574960e11b815260006004820152602401610482565b600061135e838360006108a4565b90506001600160a01b03811615610544576040516339e3563760e11b815260006004820152602401610482565b6001600160e01b0319811681146109a757600080fd5b6000602082840312156113b357600080fd5b81356113be8161138b565b9392505050565b60005b838110156113e05781810151838201526020016113c8565b50506000910152565b600081518084526114018160208601602086016113c5565b601f01601f19169290920160200192915050565b6020815260006113be60208301846113e9565b60006020828403121561143a57600080fd5b5035919050565b80356001600160a01b038116811461145857600080fd5b919050565b6000806040838503121561147057600080fd5b61147983611441565b946020939093013593505050565b60008060006060848603121561149c57600080fd5b6114a584611441565b92506114b360208501611441565b9150604084013590509250925092565b600080604083850312156114d657600080fd5b823591506114e660208401611441565b90509250929050565b60006020828403121561150157600080fd5b6113be82611441565b6000806040838503121561151d57600080fd5b61152683611441565b91506020830135801515811461153b57600080fd5b809150509250929050565b634e487b7160e01b600052604160045260246000fd5b6000806000806080858703121561157257600080fd5b61157b85611441565b935061158960208601611441565b925060408501359150606085013567ffffffffffffffff808211156115ad57600080fd5b818701915087601f8301126115c157600080fd5b8135818111156115d3576115d3611546565b604051601f8201601f19908116603f011681019083821181831017156115fb576115fb611546565b816040528281528a602084870101111561161457600080fd5b82602086016020830137600060208483010152809550505050505092959194509250565b6000806040838503121561164b57600080fd5b61165483611441565b91506114e660208401611441565b600181811c9082168061167657607f821691505b60208210810361169657634e487b7160e01b600052602260045260246000fd5b50919050565b634e487b7160e01b600052601160045260246000fd5b6000600182016116c4576116c461169c565b5060010190565b600081516116dd8185602086016113c5565b9290920192915050565b7f3c73766720786d6c6e733d22687474703a2f2f7777772e77332e6f72672f323081527f30302f737667222076696577426f783d223020302034303020343030223e000060208201527f3c726563742077696474683d2234303022206865696768743d22343030222066603e8201526e34b6361e911198221823189a11179f60891b605e8201527f3c7265637420783d2232302220793d223230222077696474683d223336302220606d8201527f6865696768743d22333630222066696c6c3d226e6f6e6522207374726f6b653d608d8201527f222346434345343722207374726f6b652d77696474683d2232222072783d223160ad820152631911179f60e11b60cd8201527f3c7465787420783d223230302220793d2238302220746578742d616e63686f7260d18201527f3d226d6964646c652220666f6e742d66616d696c793d226d6f6e6f737061636560f18201527f2220666f6e742d73697a653d223438222066696c6c3d2223464343453437223e61011182015267151e17ba32bc3a1f60c11b6101318201527f3c7465787420783d223230302220793d223133302220746578742d616e63686f610139820152600080516020611e408339815191526101598201527f652220666f6e742d73697a653d2232302220666f6e742d7765696768743d22626101798201527f6f6c64222066696c6c3d2223463046324638223e43656c6f506f6c59204368616101998201526b36b834b7b71e17ba32bc3a1f60a11b6101b9820152600061131e611b3c611aa9611a276119ab611a216119be826119a56101c58b017f3c7465787420783d223230302220793d223136352220746578742d616e63686f8152600080516020611e4083398151915260208201527f652220666f6e742d73697a653d223131222066696c6c3d2223383839324134226040820152663e47616d65202360c81b606082015260670190565b8c6116cb565b661e17ba32bc3a1f60c91b815260070190565b7f3c7465787420783d223230302220793d223230302220746578742d616e63686f8152600080516020611e4083398151915260208201527f652220666f6e742d73697a653d2239222066696c6c3d2223333544303746223e604082015260600190565b886116cb565b7f3c7465787420783d223230302220793d223334302220746578742d616e63686f8152600080516020611e4083398151915260208201527f652220666f6e742d73697a653d223130222066696c6c3d2223383839324134226040820152751f27bbb7103a343290313637b1b5971e17ba32bc3a1f60511b606082015260760190565b7f3c7465787420783d223230302220793d223336302220746578742d616e63686f8152600080516020611e4083398151915260208201527f652220666f6e742d73697a653d223130222066696c6c3d22233838393241342260408201527f3e4c6561726e207468652072756c6573206f66206d6f6e65792e3c2f746578746060820152601f60f91b608082015260810190565b651e17b9bb339f60d11b815260060190565b7f7b226e616d65223a2243656c6f506f6c592054726f7068792023000000000000815260008651611b8681601a850160208b016113c5565b7f222c226465736372697074696f6e223a224177617264656420746f2074686520601a918401918201527f77696e6e6572206f662043656c6f506f6c592047616d65202300000000000000603a8201528651611be9816053840160208b016113c5565b7f222c22696d616765223a22646174613a696d6167652f7376672b786d6c3b626160539290910191820152641cd94d8d0b60da1b60738201528551611c35816078840160208a016113c5565b7f222c2261747472696275746573223a5b7b2274726169745f74797065223a2247607892909101918201527030b6b29024a21116113b30b63ab2911d1160791b6098820152611cdb611ccb611cc5611c9060a98501896116cb565b7f227d2c7b2274726169745f74797065223a2257696e6e6572222c2276616c7565815262111d1160e91b602082015260230190565b866116cb565b63227d5d7d60e01b815260040190565b98975050505050505050565b7f646174613a6170706c69636174696f6e2f6a736f6e3b6261736536342c000000815260008251611d1f81601d8501602087016113c5565b91909101601d0192915050565b6001600160a01b0385811682528416602082015260408101839052608060608201819052600090611d5f908301846113e9565b9695505050505050565b600060208284031215611d7b57600080fd5b81516113be8161138b565b808202811582820484141761038c5761038c61169c565b8082018082111561038c5761038c61169c565b634e487b7160e01b600052603260045260246000fd5b600081611dd557611dd561169c565b506000190190565b600082611dfa57634e487b7160e01b600052601260045260246000fd5b50049056fe4142434445464748494a4b4c4d4e4f505152535455565758595a6162636465666768696a6b6c6d6e6f707172737475767778797a303132333435363738392b2f723d226d6964646c652220666f6e742d66616d696c793d226d6f6e6f73706163a264697066735822122015107c9756023de362f2c835ad24d2daf30a53f5e9b5239212fe7fa08b41723164736f6c63430008180033","linkReferences":{}},"methodIdentifiers":{"DEFAULT_ADMIN_ROLE()":"a217fddf","MINTER_ROLE()":"d5391393","approve(address,uint256)":"095ea7b3","balanceOf(address)":"70a08231","getApproved(uint256)":"081812fc","getRoleAdmin(bytes32)":"248a9ca3","grantRole(bytes32,address)":"2f2ff15d","hasRole(bytes32,address)":"91d14854","isApprovedForAll(address,address)":"e985e9c5","mintTrophy(address,uint256)":"76fb280b","name()":"06fdde03","ownerOf(uint256)":"6352211e","renounceRole(bytes32,address)":"36568abe","revokeRole(bytes32,address)":"d547741f","safeTransferFrom(address,address,uint256)":"42842e0e","safeTransferFrom(address,address,uint256,bytes)":"b88d4fde","setApprovalForAll(address,bool)":"a22cb465","supportsInterface(bytes4)":"01ffc9a7","symbol()":"95d89b41","tokenURI(uint256)":"c87b56dd","transferFrom(address,address,uint256)":"23b872dd","trophyData(uint256)":"5367d7f1"},"id":38}